:020000040800F2
:100000000011002015670008AB010008AD010008D1
:10001000B1010008B5010008B901000800000000A6
:10002000000000000000000000000000BD0100080A
:10003000BF01000800000000C1010008C301000862
:100040002F6700082F6700082F6700089F2500080A
:100050002F6700082F6700082F6700082F67000828
:100060002F6700082F6700082F6700082F67000818
:100070002F6700082F6700082F6700082F67000808
:100080002F6700082F6700082F6700082F670008F8
:100090002F6700082F6700082F6700083922000823
:1000A0002F6700082F6700082F67000865340008D5
:1000B000A5340008BB340008D13400082F670008BD
:1000C0002F6700082F6700082F6700082F670008B8
:1000D0002F670008175F00082F6700082F670008C8
:1000E0002F6700082F6700082F67000800F002F84C
:1000F00000F04CF80AA090E8000C82448344AAF176
:100100000107DA4501D100F041F8AFF2090EBAE873
:100110000F0013F0010F18BFFB1A43F0010318473B
:1001200004930000249300000A4410F8014B14F0DB
:100130000F0508BF10F8015B240908BF10F8014B38
:100140006D1E05D010F8013B6D1E01F8013BF9D181
:10015000641E03D0641E01F8015BFBD19142E4D31D
:10016000704700000023002400250026103A28BF15
:1001700078C1FBD8520728BF30C148BF0B60704719
:100180001FB509F029F91FBD10B510BD09F00FF812
:100190001146FFF7F5FF00F02DFA09F02DF803B432
:1001A000FFF7F2FF03BC05F05DFE704700BFFEE7FE
:1001B00000BFFEE700BFFEE700BFFEE770477047E5
:1001C0007047704700210020674A126842F480326D
:1001D000654B1A6000BF644A126802F40030491C83
:1001E00010B9B1F5A06FF6D15F4A126812F4003F62
:1001F00001D0012000E00020012842D15B4A1268B2
:1002000042F01002594B1A601A46126822F003029B
:100210001A601A46126842F002021A60524A526884
:10022000514B5A601A4652685A601A46526842F454
:1002300080625A601A46526822F47C125A601A464A
:10024000526842F4E8125A601A46126842F080720C
:100250001A6000BF444A126812F0007FFAD0424A86
:10026000526822F00302404B5A601A46526842F02C
:1002700002025A6000BF3C4A526802F00C02082A8F
:10028000F9D1704710B5FFF79DFF10BD10B5364886
:10029000006840F00100344908600846406834496D
:1002A00008403149486008460068324908402E49F4
:1002B00008600846006820F480200860084640680E
:1002C00020F4FE0048604FF41F008860FFF7DAFF5B
:1002D0004FF000602849086010BD10B500210020D3
:1002E0000022214B5B6803F00C0121B1042906D0E8
:1002F000082928D107E0214B214C236027E01F4B20
:100300001F4C236023E0184B5B6803F47010164BFE
:100310005B6803F48032022303EB904022B9194B4F
:100320004343174C23600DE00F4B5B6813F4003F11
:1003300004D0144B4343124C236003E00F4B434360
:100340000F4C236003E00D4B0D4C236000BF00BF3A
:10035000054B5B68C3F303130B4CE15C084B1B6854
:10036000CB40074C236010BD00100240002002402B
:100370000000FFF8FFFFF6FE08ED00E000127A0033
:100380000000002000093D0004000020FE488078A5
:10039000FE490870FC4840784870FB480078887037
:1003A000F948C07BC870F848007B0871F648407B6C
:1003B0004871F548807B8871F3480079C871F2482C
:1003C00040790872F04880794872EF48C0798872A5
:1003D000ED48007AC872EC48407A0873EA48807A9F
:1003E0004873E948C07A8873E748C078C873704793
:1003F00000B50246062A47D2DFE802F0030A1622B9
:100400002E3AE148C07B00F0E000DF49C87347E0C6
:10041000DD48C07B00F0E000DB49C8730846C07BC4
:1004200040F01000C8733BE0D748C07B00F0E0000C
:10043000D549C8730846C07B40F01100C8732FE04F
:10044000D148C07B00F0E000CF49C8730846C07BAC
:1004500040F01300C87323E0CB48C07B00F0E000FD
:10046000C949C8730846C07B40F01700C87317E03D
:10047000C548C07B00F0E000C349C8730846C07B94
:1004800040F01F00C8730BE0BF48C07B00F0E000E5
:10049000BD49C8730846C07B40F01000C87300BF58
:1004A00000BFFFF773FF00BD70B505460020B849D7
:1004B00008604FF00A0005F095FC0120B549C1F82D
:1004C000AC01152D02D0262D2BD115E00120B2490B
:1004D00008604FF000040CE00020B04908604FF0C5
:1004E000020005F07FFC0120AA49C1F8AC01601CA4
:1004F000C4B2202CF0DB15E00020A74908600446B8
:100500000CE00020A54908604FF0020005F06AFCED
:100510000120A049C1F8AC01601CC4B2202CF0DB62
:1005200000E000BF00BF0A2005F05CFC01209849F4
:1005300008609B480078FFF75BFF70BD10B59948D5
:10054000027899499948006805F0D1FB044696481D
:100550000068974908709448406800B2954908803F
:100560009148806800B2944908808F48C0689349D8
:1005700008608D480069924908708B48406991492C
:10058000087089488069904908708748C0698F4918
:1005900008708548006A8E4908708348406A8D4912
:1005A00008708148806A8C4908707F48C06A8B490E
:1005B00008708B48C07C40F001008949C874002055
:1005C00001F0ABFD002001F0B2FD002001F0B9FD0B
:1005D000002001F0C0FD012001F0C7FD032081498A
:1005E000087000208049087001208049087005F0DB
:1005F000F1FE10BD00BF00BF00BF00BF00BF00BFC5
:10060000FFF744FE05F028FC01F0FCFC02F0FFFCC3
:10061000FF21002002F06EFD01F05EFF41F61F4158
:10062000142002F036FE04F0CEF84FF4165005F018
:1006300026FCFFF783FF4FF47A7005F0D3FB00210F
:10064000084602F057FD002405E06949694804F0B6
:10065000C0F8601CC4B2642CF7DB4FF47A7005F06C
:10066000C1FB02F055F803F09BF904F0A0F900205B
:1006700004F040FF002004F0C3FF002004F0EDFF71
:10068000002005F012F8012001F06FFD24E00025A4
:10069000002603F061FF3EB14248027842494348D8
:1006A000006805F024FB80463DB13E48027852497F
:1006B0003E48006805F0C4FA07465048007850B13B
:1006C00000BF40214E4807F01EFE0028F9D05521FA
:1006D0004B4807F0AAFD00BFD9E710B501204949F2
:1006E00008604FF0640005F07DFB00202949C1F847
:1006F0008801642005F076FB0120424908604FF034
:10070000640005F06FFB00202249C1F888016420D5
:1007100005F068FB01203B4908604FF0640005F0DC
:1007200061FB00201B49C1F88801642005F05AFBD9
:1007300010BD70B505460E460020154908604FF003
:10074000010005F04FFB01201249C1F8AC01152D45
:1007500002D0262D70D157E001200F4908604FF0DC
:1007600000040EE000200D4908604FF0010005F084
:1007700039FB01200749C1F8AC0105F033FB601CCF
:10078000C4B2062CEEDB58E0560900203C090020DC
:10079000B001214200002142A0012142AC012142CE
:1007A0007C00002008090020D0090020B4080020A7
:1007B000B2080020880800208A0800206804002071
:1007C000820000208300002084000020850000209B
:1007D000860000208700002088000020890000207B
:1007E00066090020AD000020AE00002010090020A6
:1007F0009C0800207C080020B80800205100002040
:1008000000380140880121420020FB49086004466D
:100810000EE00020F94908604FF0010005F0E2FA0F
:100820000120F749C1F8AC0105F0DCFA601CC4B244
:10083000062CEEDB01E0FFE700BF00BF012005F062
:10084000D1FA0120EF4908604FF0140005F0CAFA10
:100850003046FFF7CDFD70BD00B503460A46EBB943
:10086000012A04D0022A09D0032A15D10DE0002064
:10087000E549087048708870C8700EE00020E249B1
:10088000087048708870C87007E00020DE49087062
:1008900048708870C87000E000BF4AE0012A04D0A8
:1008A000022A18D0032A42D12BE0D848007840F021
:1008B0000800D5490870D548407940F008004870D4
:1008C000D248007840F008008870D048407940F065
:1008D0000800C8702CE0CD48407840F00800CA49B4
:1008E0000870CA48007840F008004870C74840784F
:1008F00040F008008870C548007840F00800C870D3
:1009000016E0C248407840F00800BF490870BF4870
:10091000407940F008004870BC48407840F008003A
:100920008870BA48407940F00800C87000E000BF05
:1009300000BFFFF72BFD00BD10B504460120B449F0
:10094000087008460078012823D1152C0DD1B14834
:100950000078032803D10120AE49087014E0AD48A7
:100960000078401CAB4908700EE0262C0CD1A94839
:100970000078012803D10320A649087004E0A548A7
:100980000078401EA3490870A24801780120FFF7B3
:1009900063FF10BDF0B506460F469F4800780A2158
:1009A00090FBF1F0C5B29C48007890FBF1FC01FB94
:1009B0001C00C4B29948007890FBF1F0C3B297488C
:1009C000007890FBF1FC01FB1C00C2B2152E4AD14D
:1009D000012F06D0022F13D0032F24D0042F40D193
:1009E00030E0022D06DA681CC5B28D48405D8649AC
:1009F000087104E000258A48405D8349087131E0B0
:100A0000092C08DA601CC4B28548005D40F0800003
:100A10007D49487106E000248148005D40F0800077
:100A2000794948711EE0052B06DA581CC3B27C4890
:100A3000C05C7549887104E000237948C05C724944
:100A400088710FE0092A06DA501CC2B27448805C33
:100A50006D49C87104E000227148805C6A49C87120
:100A600000E000BF4CE0262E4AD1012F06D0022F15
:100A700013D0032F24D0042F40D130E0002D06DD09
:100A8000681EC5B26648405D5F49087104E00225F2
:100A90006348405D5C49087131E0002C08DD601E50
:100AA000C4B25F48005D40F080005749487106E0DD
:100AB00009245B48005D40F08000534948711EE006
:100AC000002B06DD581EC3B25548C05C4E498871E4
:100AD00004E005235248C05C4B4988710FE0002AAE
:100AE00006DD501EC2B24E48805C4749C87104E022
:100AF00009224B48805C4449C87100E000BF00BF38
:100B000005EB850004EB40004349087003EB8300CC
:100B100002EB400041490870FFF738FCF0BD00B51A
:100B200040480078384908723E48007848723D488D
:100B3000007840F0010088723A48007840F00100E7
:100B4000C872FFF723FC00BD00B502461AB90120A8
:100B50002D49087307E0344834490978405C40F077
:100B6000010029490873FFF711FC00BD00B5002002
:100B70002F4908702F4908702F4908702F490870B5
:100B8000234908702E490870224801780120FFF798
:100B900063FE00202B4908700120FFF7D5FF0120DC
:100BA00029490870002029490870294908702949F5
:100BB0000870012028490870FFF7B1FF122027496B
:100BC00008700120264908602649C1F8A40100BD2B
:100BD00000B502460B46232A46D100201D49087065
:100BE0000948007A40F00100074908720846407A37
:100BF00000F0FE00487252E0A0012142AC01214207
:100C000000002142B00121425609002024000020AA
:100C10005B000020780000207E0000207F00002084
:100C200038000020420000202E0000207700002025
:100C3000800000205D0000205E0000208100002078
:100C40005C0000205A0000205F00002060000020AF
:100C5000610000206200002064000020630000208A
:100C6000A081214200802142342A18D10120FF496D
:100C70000870012B06D1FE48407A40F00100FC4983
:100C8000487206E02BB9FA48407A00F0FE00F849B5
:100C90004872F748007A00F0FE00F5490872FFF745
:100CA00075FB00BD00B5024632B9F148C07A00F0CC
:100CB000FE00EF49C87205E0ED48C07A40F001003F
:100CC000EB49C872FFF762FB00BD1CB501214FF074
:100CD000C05006F079F9012007F0DBFBE548007809
:100CE000E5490870E54800784870002308464278D6
:100CF000CDE9002303780122114640F2DE7001F0B5
:100D000095FB45F25001042007F083FB0120DC49EC
:100D100008701CBD10B5DB480078092879D2DFE8DF
:100D200000F07805319CF0EFEE598A00D648007843
:100D3000122802D19020D4490870D3480078902816
:100D400007D10120D1490870D1490870FFF7FCFE96
:100D500017E0CD480078562811D1CE4800780128F8
:100D600005DDCC480078401ECA49087009E0C94832
:100D70000078012805D10420C649087001E0FFF77A
:100D8000ACFCAFE1C0480078122802D19020BE49E7
:100D90000870BD480078902809D10120BB4908702F
:100DA0000220BB4908700120FFF7CEFE11E0B648D3
:100DB000007856280BD1B7480078401CB549087018
:100DC00008460078052804D10120087001E0FFF7EB
:100DD00084FC87E1AC480078122802D14520AA495A
:100DE0000870A9480078452814D10020AA49087045
:100DF0000120AA4908705620A349087001F099FA09
:100E00009D4800789B4908709B4840789B49087032
:100E100010E066E19C480078562809D145209A499F
:100E2000087000209D49087001209B49087001E06E
:100E3000FFF753FC56E194480078122802D167204E
:100E40009149087090480078672803D11520FFF772
:100E500073FD01E0FFF741FC44E190480078012870
:100E60000AD100208D490870FFF72FFF0120894922
:100E700008701220844908708948007801282CD114
:100E8000002087490870874801780120FFF7E4FCBB
:100E900084480078012804D0022808D0032812D101
:100EA0000BE00520804908708049087011E00A2095
:100EB0007D4908707D4908700BE00F207A49087061
:100EC0007A49087005E0052077490870774908706D
:100ED00000BF00BF12206C4908706C4800780128E0
:100EE00010D10020694908707149087001207149CA
:100EF0000870FFF7D7FE0120FFF726FEF2E08EE034
:100F000062E05EE060480078232824D134205E4906
:100F100008705F480078012802D16749086006E040
:100F20005B480078022802D1012064490860002053
:100F30006349087063480078012802D100206249A3
:100F40000870584801780120FFF786FC0121342001
:100F5000FFF73EFE34E04C480078342830D123209F
:100F6000494908704A480078012807D15349086068
:100F70004FF000005549C1F8A4010BE04448007847
:100F8000022807D101204C4908604FF000004F496A
:100F9000C1F8A0014B480078012805D14A490870E2
:100FA00000204749087002E00120454908703D488B
:100FB00001780120FFF750FC01212320FFF708FEF4
:100FC00090E0FFF7D3FD8DE03448007828B1314838
:100FD00001781520FFF7DEFC20E02B480078672819
:100FE00003D11520FFF7A8FC18E027480078232834
:100FF00012D137480078052810DA35480078401CAF
:1010000033490870084601781520FFF792FB3048F5
:1010100000783049087001E0FFF75FFB62E01F488D
:10102000007828B11B4801782620FFF7B3FC57E071
:1010300015480078672803D12620FFF77DFC4FE094
:1010400011480078232849D121480078002847DD3D
:101050001F480078401E1E49087008460178262067
:10106000FFF767FB1A4800781A4935E06200002054
:10107000560900207E000020860900207F00002005
:101080005400002074000020630000205A0000205B
:101090007700002064000020610000206000002034
:1010A0005B000020780000207A0000207B000020F8
:1010B0005F0000205C000020A4812142A081214229
:1010C000800000205E0000205D00002000802142A2
:1010D0007C0000207D000020087001E0FFF7FDFA91
:1010E00000E000BF00BF10BD2DE9F04703460C46ED
:1010F0003C2093FBF0F0C5B23C2093FBF0F100FBE9
:101100001130C6B20A2095FBF0F0C7B20A2095FB59
:10111000F0F100FB115000F0FF080A2096FBF0F000
:1011200000F0FF090A2096FBF0F100FB116000F0CF
:10113000FF0A012C25D1012A0AD1FE48C05D40F0EA
:101140000100FD490872FB4810F8080048720AE0E7
:101150004AB9F848C05DF8490872F64810F8080026
:1011600040F001004872F34810F8090040F0010017
:10117000F1498872EF4810F80A0040F00100C87287
:1011800012E08CB9012A05D10020EB490872012038
:10119000487205E022B90120E74908720020487230
:1011A0000120E5498872C872FFF7F0F8BDE8F087C2
:1011B00000B5024632B9E048C07A00F0FE00DE49D0
:1011C000C87205E0DC48C07A40F00100DA49C87214
:1011D000FFF7DCF800BD10B503460A4693BBD748BD
:1011E00000780A2190FBF1F0D549085CD2490871DA
:1011F000D24800780A2190FBF1F401FB1400D04999
:10120000085C40F08000CC494871CE4800780A2143
:1012100090FBF1F0CA49085CC7498871C948007859
:101220000A2190FBF1F401FB1400C549085CC24996
:10123000C871012A07D0022A09D0032A0BD0042A38
:1012400011D10CE014E00020BB4908710FE08020B0
:10125000B94948710BE00020B749887107E00020C8
:10126000B549C87103E00020B349087100BF41E0EF
:10127000012A06D0022A0ED0032A1AD0042A2ED11F
:1012800021E0AE4800780A2190FBF1F0AC49085CFF
:10129000A94908712DE0A94800780A2190FBF1F4D2
:1012A00001FB1400A649085C40F08000A249487187
:1012B0001FE0A44800780A2190FBF1F0A049085CE7
:1012C0009D49887115E09F4800780A2190FBF1F450
:1012D00001FB14009A49085C9749C87109E09748D6
:1012E00000780A2190FBF1F09549085C9249087159
:1012F00000BF00BFFFF74AF810BD10B503460A460D
:10130000F3B9012A04D0022A07D0032A16D110E02B
:10131000082089490870487011E08B4800780A213C
:1013200090FBF1F401FB14008849085C8249C87005
:1013300005E0082080498870C87000E000BF48E0E0
:10134000012A04D0022A1BD0032A40D126E080487B
:1013500000780A2190FBF1F07C49085C40F008001D
:10136000754908707A4800780A2190FBF1F401FB76
:1013700014007649085C40F008006F49487027E087
:10138000714800780A2190FBF1F401FB14006F49C9
:10139000085C40F008006849C87019E06A480078A5
:1013A0000A2190FBF1F06949085C40F008006249AD
:1013B0008870654800780A2190FBF1F401FB140065
:1013C0006249085C40F008005B49C87000E000BF5B
:1013D00000BFFEF7DBFF10BD002110E001225D4BD6
:1013E0001A6010F0800F03D0A3F104031A6002E02A
:1013F0000022594B1A604206100E4A1CD1B208292D
:10140000ECDB704700B555480078092826D2DFE8A4
:1014100000F02505090D1115191D2100FE20FFF70B
:10142000DBFF1FE0FD20FFF7D7FF1BE0FB20FFF7EE
:10143000D3FF17E0F720FFF7CFFF13E0EF20FFF710
:10144000CBFF0FE0DF20FFF7C7FF0BE0BF20FFF768
:10145000C3FF07E07F20FFF7BFFF03E0FF20FFF798
:10146000BBFF00BF00BF00BD10B53D48007801289C
:101470000CD13C48C078102808D1002038490870A9
:101480003849C87035490870FFF7BCFF3648007806
:1014900001284ED13348407919284AD13348007881
:1014A000C0433249087000202E4948712F48007807
:1014B000F0BB2F480078012804D12E480178002085
:1014C000FFF7CAF92C480078012827D12B4800786B
:1014D000E0B92B48007880B92A48007820B901216A
:1014E0000020FFF70AFF19E026480078012815D1EF
:1014F00002210020FFF701FF10E0214800780128B9
:101500000CD102210020FFF7F8FE07E01B4800780D
:10151000012803D103210020FFF7EFFE1A480078CD
:10152000012803D100213420FFF752FB17482FE098
:101530004CE04AE042000020560900207E000020D6
:10154000380000207F0000207B00002024000020C5
:101550007A000020A08121429C8121427500002058
:101560005700002066000020560000205200002096
:101570005B000020780000205C000020810000203B
:101580005D0000205E000020620000205F0000205F
:101590000078012802D10020FFF784FBFF48007883
:1015A000012802D10020FFF7CFFAFD48007801287A
:1015B00004D1FC4801780020FFF70DFEFA480078BE
:1015C00001285CD10020FFF7F3FD58E0F7480078D0
:1015D000FF2854D1F6480078012804D1F548017855
:1015E0000120FFF739F9F4480078012824D1F348A5
:1015F0000078D0B9F248007878B9F248007820B97C
:1016000001210846FFF779FE16E0EE480078012830
:1016100012D10221FFF771FE0EE0E948007801289F
:101620000AD10221FFF769FE06E0E44800780128AC
:1016300002D10321FFF761FEE3480078012803D1BE
:1016400001213420FFF7C4FAE0480078012801D1D5
:10165000FFF728FBD1480078012801D1FFF774FA81
:10166000CF480078012804D1CE4801780120FFF747
:10167000B2FDCD480078012801D1FFF799FDD4488B
:10168000007801287ED1D348807832287AD1002092
:10169000D04988700846C088401CC880C748007878
:1016A000F0BB0846C088CC490978C1EB0111B0EB0A
:1016B000810F05DAC749C88801221146FFF714FDDA
:1016C000C6480078022849D0032831D0042817D012
:1016D00005285BD1BF48C088BF490978C1EB01111B
:1016E0000522C2EB8101884209DDBC480078401E1A
:1016F000BA490870084601782620FFF71AF846E034
:10170000B448C088B4490978C1EB01110422C2EB86
:10171000810188420BDDB1480078401EAF4900E0EE
:101720006BE00870084601782620FFF702F82EE0EB
:10173000A848C088A8490978C1EB01110322C2EB6F
:101740008101884209DDA5480078401EA349087040
:10175000084601782620FEF7ECFF18E09D48C08877
:101760009D490978C1EB01110222C2EB8101884237
:101770000BDD9A480078401E9849087008460178A9
:10178000262000E038E0FEF7D4FF00E000BF00BFF5
:101790009048C08890490978C1EB0111B0EB810FE6
:1017A0002AD100208A4908708D480078012802D08B
:1017B00002280ED106E001208A4908608A49C1F852
:1017C000A40107E00120894908608749C1F8A00108
:1017D00000E000BF00BF00207D490870012078496B
:1017E00008707849087000207A490870C8807148EC
:1017F00001780120FFF730F86BE07048007801288D
:1018000067D17448C0887A490978C1EB0111B0EBFF
:10181000810F05DA6F49C88801221146FFF764FC81
:101820006E48007873490978884247DA6B48007837
:10183000012832D0022821D0032810D004283BD11F
:101840006448C088052809DA64480078401C634968
:101850000870084601781520FEF76BFF2DE05D4803
:10186000C088042809DA5D480078401C5B4908708C
:10187000084601781520FEF75CFF1EE05548C08839
:10188000032809DA55480078401C54490870084676
:1018900001781520FEF74DFF0FE04E48C088022862
:1018A00009DA4E480078401C4C4908700846017817
:1018B0001520FEF73EFF00E000BF00BF4548C0888E
:1018C0004B490978C1EB0111B0EB810F01D1FFF752
:1018D0004DF93B480078012847D13E48007832282E
:1018E00043D100203B4908700846C088401CC8808E
:1018F0000846C088782804DAC88801221146FFF714
:10190000F3FB3448C08878282FD100203149C880A3
:10191000C88801221146FFF7E7FB0020284908701C
:101920002849087001202A490870244908702C4869
:101930000078012802D0022812D108E001202949AC
:1019400008604FF000002849C1F8A40109E0012017
:10195000264908604FF000002349C1F8A00100E0CB
:1019600000BF00BF23202449087010BD30B50446D5
:101970000D46002012490870124908700F4908707E
:10198000012013490870002012498870C880C88857
:1019900001221146FFF7A8FB23202FE05A00002068
:1019A0006000002064000020610000205200002040
:1019B0005B000020780000205C00002081000020F7
:1019C0005D0000205E000020620000205F0000201B
:1019D00080000020660000207A0000207D000020AA
:1019E00077000020A081214200802142A481214271
:1019F0007B0000207C00002063000020FF4908706D
:101A0000012C02D0022C12D108E00120FC49086010
:101A10004FF00000FB49C1F8A40109E00120FA4998
:101A200008604FF00000F749C1F8A00100E000BFD6
:101A300000BF30BD10B50020F4490870F4490870AB
:101A4000002409E0F24801782620FEF772FE052006
:101A500004F0C8F9601CC4B20A2CF3DB0120ED4984
:101A60000870ED49087010BD10B500244DE0EB483A
:101A7000005D40F00800EA498870E848005D40F0E9
:101A80000800C870E548005D40F008000870E348B1
:101A9000005D40F008004870E248005D40F0010041
:101AA0000873E148005D0871DF48005D40F0800088
:101AB0004871DD48005D40F080008871DA48005DC3
:101AC00040F08000C871D948005D40F00100087204
:101AD000D648005D40F001004872D448005D40F0F7
:101AE00001008872D148005D40F00100C872FF20FB
:101AF000C8738F208873FF204873FEF747FC4FF4AC
:101B00007A7004F06FF9601CC4B20A2CAFDB10BD10
:101B1000C7490860704700B50246182A65D2DFE859
:101B200002F00C1213191A202127282E2F35363CCB
:101B30003D4243494A505157585E0020B8494873C6
:101B40008820887357E000BF0020B549487384207F
:101B5000887350E000BF0020B14948738220887329
:101B600049E000BF0020AE4948738120887342E0FD
:101B700000BF1020AA494873802088733BE000BF53
:101B80002020A74948738020887334E000BF40209C
:101B9000A3494873802088732DE000BF8020A049AE
:101BA0004873887327E000BF08209D494873802050
:101BB000887320E000BF042099494873802088730F
:101BC00019E000BF0220964948738020887312E014
:101BD00000BF012092494873802088730BE00020E9
:101BE0008F4948738820887305E0FF208C4948732B
:101BF0008F20887300BF00BFFEF7C8FB00BD2DE932
:101C0000F0410020064607460546044600F091FBD9
:101C100088490878FFF77FFF864840780A2190FBC3
:101C2000F1F201FB1200C4B28248407890FBF1F05F
:101C3000C5B28048007890FBF1F201FB1200C7B2F8
:101C40007C48007890FBF1F0C6B27748805D74491B
:101C500008717548C05D40F080004871002E08DDB5
:101C60007148405D40F0800088716F48005DC87128
:101C700008E06D48405D6A4988716B48005D40F03E
:101C80008000C871BDE8F0812DE9F04104460020D4
:101C9000804607460646054600F04BFB6549087836
:101CA000FFF739FF634840780A2190FBF1F201FB0E
:101CB0001200C5B25F48407890FBF1F0C6B25D48B3
:101CC000007890FBF1F201FB1200C7B2594800788E
:101CD00090FBF1F000F0FF08534810F8080050495D
:101CE00008711CB95048C05D487107E0012C05D14E
:101CF0004D48C05D40F0800049494871B8F1000F7F
:101D000009DD4948805D40F08000454988714648BA
:101D1000405DC87108E04448805D4149887142488F
:101D2000405D40F08000C871FEF730FBBDE8F081F7
:101D300010B580203A49887301204873FEF726FBCE
:101D40004FF47A7004F04EF8032035494873FEF7DB
:101D50001DFB4FF47A7004F045F8072030494873B2
:101D6000FEF714FB4FF47A7004F03CF80F202C4976
:101D70004873FEF70BFB4FF47A7004F033F88F20B2
:101D800027494873FEF702FB4FF47A7004F02AF8F3
:101D9000CF2023494873FEF7F9FA4FF47A7004F024
:101DA00021F8EF201E494873FEF7F0FA4FF47A70DD
:101DB00004F018F8FF201A494873FEF7E7FA4FF4C9
:101DC0007A7004F00FF8812015498873FEF7DEFA67
:101DD0004FF47A7004F006F8832011498873FEF7F7
:101DE000D5FA4FF47A7003F0FDFF87200C49887311
:101DF000FEF7CCFA4FF47A701EE00000630000207A
:101E0000A081214200802142A48121427D00002046
:101E10007C000020780000207700002024000020B3
:101E2000560900202E00002038000020420000202B
:101E3000880121428609002003F0D4FF8F206949E0
:101E40008873FEF7A3FA4FF47A7003F0CBFF0020FB
:101E5000644948738873FEF799FA4FF47A7003F077
:101E6000C1FF10BD10B500205F490870FFF7CAFA26
:101E7000FF21002001F03EF940F2DC5003F0B2FFF8
:101E80000021084601F036F94FF47A7003F0AAFFFA
:101E900060205449C8730120087354480078012811
:101EA00004D0022818D0032842D12BE050480078F3
:101EB00040F008004B4908704D48407940F0080058
:101EC00048704B48007840F00800887048484079D6
:101ED00040F00800C8702CE04548407840F0080009
:101EE000404908704248007840F008004870404877
:101EF000407840F0080088703D48007840F00800C5
:101F0000C87016E03A48407840F00800354908703B
:101F10003748407940F0080048703548407840F034
:101F2000080088703248407940F00800C87000E02E
:101F300000BF00BF00202B494873887308714871A7
:101F40008871C8712B48007808722A480078487256
:101F50002848007840F0010088722648007840F058
:101F60000100C87210BD70B505460A2003F03AFFA3
:101F7000012021490860012D02D0022D2BD115E04E
:101F800001201E4908604FF000040CE000201A49AF
:101F900008604FF0010003F025FF01201849C1F847
:101FA000AC01601CC4B2032CF0DB15E00020134927
:101FB000086004460CE000200F4908604FF0010063
:101FC00003F010FF01200E49C1F8AC01601CC4B23F
:101FD000032CF0DB00E000BF00BF0A2003F002FF8B
:101FE00070BD000056090020750000207800002018
:101FF0002400002042000020AC012142A001214227
:102000000000214208B50121042004F0D0FF032084
:10201000ADF8000000208DF8030002208DF80200CA
:102020006946614804F010FD0420ADF8000010205E
:102030008DF8030002208DF8020069465A4804F02A
:1020400003FD0421584804F0ACFD4FF40060ADF8E6
:10205000000014208DF8030003208DF8020069466B
:10206000514804F0F1FC4FF400614F4804F097FD33
:102070004FF4A850ADF8000004208DF803000320B1
:102080008DF802006946484804F0DEFC0121082072
:1020900004F08DFF4FF47870ADF8000010208DF83B
:1020A000030001208DF802006946404804F0CCFC92
:1020B0004FF478713D4804F072FD4FF4E050ADF8F4
:1020C000000004208DF803006946384804F0BCFC89
:1020D0000320ADF8000000208DF8030002208DF8E9
:1020E00002006946314804F0AFFC0121102004F0E1
:1020F0005EFF4FF40050ADF8000014208DF803008F
:1021000003208DF802006946294804F09DFC4FF435
:102110000051274804F045FD08BD012803D10021E6
:10212000244A116002E00121224A1160704701280F
:1021300003D10021204A116002E001211E4A1160F2
:102140007047012803D100211C4A116002E00121DF
:102150001A4A11607047012803D10021184A116002
:1021600002E00121164A11607047012803D10021C5
:10217000144A116002E00121124A116070470128DF
:1021800003D10021104A116002E001210E4A1160C2
:102190007047012803D100210C4A116002E001219F
:1021A0000A4A11607047000000080140000C01401D
:1021B00000100140A0812142A48121429C81214242
:1021C000AC012142B40122429481214298812142F2
:1021D0001FB50121204804F006FD0121092004F06B
:1021E000E6FE4020ADF80C0028208DF80F0003A972
:1021F0001A4804F029FC0621012004F039FD402092
:10220000019000208DF8080008208DF809000120B9
:102210008DF80A0001A804F028FB17208DF80000B3
:1022200002208DF8010001208DF802008DF80300D6
:10223000684604F094FA1FBD10B50A2003F0D2FDE1
:10224000402004F07FFB10B10120054908704020B8
:1022500004F089FB10BD000000023000000C0140BA
:102260005300002008B503208DF8000001208DF8F0
:10227000010000208DF8020001208DF8030068465F
:1022800004F06DFA08BDF0B503460C46154664200F
:1022900093FBF0F0C6B2642093FBF0F700FB17301D
:1022A000C1B2132E02DD01F16400C1B20846CF179E
:1022B00001EB977701EBA702072092FBF0F700FBF9
:1022C000172082B25719601EDFF868C41CF800009E
:1022D000384482B2CF1701EB9777BF10B1EB870775
:1022E00003D1032C01DA501E82B2072092FBF0F7D3
:1022F00000FB1720C0B2F0BD0146CA1701EB927275
:102300009210B1EB820212D1642091FBF0F200FB3B
:10231000121050B94FF4C87091FBF0F200FB12108C
:1023200008B9012070470020FCE70120FAE70020EF
:10233000F8E770B5002600240025FF4806884FEA1C
:102340000646FE48B0F81C080644FD48B6FBF0F40B
:10235000FC480088A0423CD0FA490C8040F2B2759B
:1023600010E02846FFF7C8FF40B1B4F5B77F02D3AD
:10237000A4F5B77404E0681C85B206E0A4F26D14FD
:10238000681C85B2B4F5B67FEBD800BFEE488580F7
:10239000002516E0EC498888FFF7AEFF30B1012D2B
:1023A00004D11D2C01D31D3C09E00CE0E748405D41
:1023B000A04203D8E548405D241A00E003E0681C11
:1023C00085B21C2CE6D200BF681CDF498871601CF6
:1023D000C871DB48B6FBF0F100FB11644FF461609B
:1023E000B4FBF0F0D84908704FF46160B4FBF0F131
:1023F00000FB11403C21B0FBF1F0D34948704FF491
:102400006160B4FBF0F100FB11403C21B0FBF1F244
:1024100001FB1200CC4988700B46DA7999799888CB
:10242000FFF731FFC8490872002070BD2DE9F05F49
:1024300006460F4690469946DDE90AAB002440F275
:10244000B270864203DB40F63300864202DD012093
:10245000BDE8F09F40F2B2750AE02846FFF74CFF56
:1024600010B1BB48044401E0BA480444681C85B27A
:10247000B542F2DB781EC7B2002510E0B348405DDC
:1024800040F2A321484304EBC0143046FFF734FF69
:1024900018B1012D01D1AA480444681C85B2BD427F
:1024A000ECDBA8F1010040F2A321484304EBC01487
:1024B000C9EB4910C0EB092004EB0014CAEB0A1069
:1024C00004EB80045C4404F041FE204604F009FE65
:1024D00004F03CFE0020BBE77CB500240025FFF79C
:1024E000C1FE042005F09BFF0546042005F097FF80
:1024F000A0F5A041503944D001214FF0C05004F064
:1025000063FD012005F0C5FF05F056FF012004F032
:10251000BFFC04E0601CC4B20A2003F063FC41204D
:1025200004F021FC0028F5D0FA2C01DB01207CBD51
:102530004FF4807004F0C5FC012004F0C8FC04F0E6
:102540000CFE04F003FE0121084604F09BFD04F09C
:10255000FDFD47F6FF7004F0D1FD04F0F7FD002308
:10256000009301930C230122062140F2DE70FFF755
:102570005DFF45F25001042005F04BFF04F0E6FD3D
:1025800007E004F0EAFD0121084604F07BFD04F0B9
:10259000DDFDFFF7CEFE04F047FD0020C7E700B5E4
:1025A0006D48008810F0010F04D0FFF7C2FE012033
:1025B0006A4908706848008810F0020F06D0664823
:1025C000008820F002005D49A1F8040862480088F4
:1025D00040F6FA7100EA01005849A1F8040800BF6A
:1025E0005D48008810F0200FFAD000BD70B503469A
:1025F000002409E013F8015B11F8016BB54201D02A
:10260000002070BD601CC4B29442F3DB0120F8E7E7
:102610002DE9FE4F002406E051480068005D02A944
:102620000855601CC4B2032CF6DB00240BE004EB5D
:1026300044014C4A8818032202A9FFF7D7FF00B1D2
:1026400003E0601CC4B20C2CF1DB00BF601CC6B2FE
:10265000434800680079202805D141480068407946
:102660003038C5B20BE03E48006841793C4800680C
:10267000007930380A2202FB00103038C5B23848E1
:102680000068C07930384FF47A714843344909689A
:10269000097A3039642202FB010131480068407A2E
:1026A00030380A2202FB00102D490968897A084453
:1026B000303887B22C48006841782B480068007891
:1026C000303802FB0010303800F0FF0A264800685E
:1026D000017925480068C078303802FB0010303896
:1026E00000F0FF0920480068C1791F480068807920
:1026F000303802FB0010303800F0FF0853462A46FD
:1027000031463846CDE90098FFF790FEBDE8FE8FD0
:1027100010B500BFFFF70DFE144908700846007899
:102720000028F7D11248007801282AD0114806491C
:102730000A6821E00A9400081828004000200040A0
:10274000805101008C0000208609002016940008AA
:102750000085E2018033E10104280040540000209C
:1027600090000020E6930008940000209B000020C9
:10277000A7000020A409002002604A68426009897D
:102780000181F9488088B0F5FA6F32DBF64880881D
:10279000A0F5FA60642803DA0120F449887202E0A7
:1027A0000020F2498872F0488088A0F5FA600A217A
:1027B00090FBF1F0EE490870EC48807AED49EC4A64
:1027C0001278895C0843E9498872E7488088A0F557
:1027D000FA600A2190FBF1F201FB1200E649087051
:1027E000E248407AE349E44A1278895C0843DF49C9
:1027F0004872DD4880790C2825DCDB48807909287F
:1028000006DDDA48407A00F0FE00D849487205E05B
:10281000D648407A40F00100D4494872D2488079C5
:102820000A2190FBF1F201FB1200D149087001204E
:10283000CE4908720846007ACE49CD4A1278895CA2
:102840000843CA490872C848C0791F282CDCC6480A
:10285000C0790A2190FBF1F0C5490870C248C079DF
:102860000A2190FBF1F201FB1200C3490870BF4836
:10287000C07900F00100BD49C8710846C079BD4962
:10288000BB4A1278895C0843B849C8710846807908
:1028900000F00100887108468079B649B64A12787E
:1028A000895C0843B1498871AF480078182829DC51
:1028B000AD4800780A2190FBF1F0AD490870AA48B4
:1028C00000780A2190FBF1F201FB1200AA4908707E
:1028D000A648407900F00100A449487108464079B3
:1028E000A449A34A1278895C0843A0494871012091
:1028F0000871084600799F499F4A1278895C08430D
:102900009A490871984840783C282CDC96484078D1
:102910000A2190FBF1F096490870934840780A210B
:1029200090FBF1F201FB1200934908708F48C078C8
:1029300000F001008D49C8700846C0788D498C4A66
:102940001278895C08438949C8700846807800F08D
:1029500001008870084680788649874A1278895C29
:102960000843824988708548007830B384480078ED
:1029700001284FD18348007818B182480078012897
:102980001CD180480078C0F10A007849085C00F04A
:1029900001007C490978C1F10A01744A5054794810
:1029A0000078C0F10A001146085C7249897A084330
:1029B00074490978C1F10A0150542BE0714800783C
:1029C00002280BD16948407A00F0FE00674948723E
:1029D0000846007A00F0FE0008721BE069480078A3
:1029E000C0F10B006149085C00F0010065490978FD
:1029F000C1F10B015D4A505462480078C0F10B00F0
:102A00001146085C5B49897A08435E490978C1F13F
:102A10000B01505409220221544800F0B0FB10BDB4
:102A2000F0B504460A46264604EBD4777D1004EB45
:102A3000D4777F10A4EB4707FBB2F5BB5BBB524ECC
:102A4000B688A6F5FA660A2796FBF7F606EB860621
:102A50004D4FBF88A7EB4606B1B24C4EB1804A4EEF
:102A6000B688A6F5FA660A2796FBF7F670B2012A31
:102A700005D1461C70B20A2806DB002004E0461E81
:102A800070B2002800DA092000EB800601EB460650
:102A90003D4FBE80A7E1012B21D13B4EB688A6F564
:102AA000FA660A2796FBF7FC07FB1C6670B2364EE7
:102AB000B688361AB1B2354E00E011E0B180012A75
:102AC00005D1461C70B20A2806DB002004E0461E31
:102AD00070B2002800DA09200E182B4FBE8082E168
:102AE000012D74D113BB284EB6790A2796FBF7F651
:102AF00070B2254EB67900EB8007A6EB4706B1B25F
:102B0000224FB971012A05D1461C70B2012806DB9B
:102B1000002004E0461E70B2002800DA012000EB1D
:102B2000800601EB4606184FBE715CE1012B4CD1CB
:102B3000154EB6790A2796FBF7FC07FB1C6670B2A8
:102B4000114EB679361AB1B2104FB9710E4EB67930
:102B50000A2796FBF7F60EBB012A19D1461C70B264
:102B60000A282FDB00202DE0A409002066090020A0
:102B700099000020140000209A00002093040020F7
:102B8000A700002098000020900900209A0900204A
:102B9000461E70B2002815DA092013E0F34EB6790C
:102BA0000A2796FBF7F6012E0CD1012A05D1461C07
:102BB00070B2032806DB002004E0461E70B2002835
:102BC00000DA02200E18E94FBE710CE1FFE7022D7A
:102BD00060D113BBE54EF6790A2796FBF7F670B283
:102BE000E24EF67900EB8007A6EB4706B1B2E04F64
:102BF000F971012A05D1461C70B2042806DB0020B9
:102C000004E0461E70B2002800DA032000EB8006C4
:102C100001EB4606D54FFE71E5E0012B39D1D34ECD
:102C2000F6790A2796FBF7FC07FB1C6670B2CF4EBD
:102C3000F679361AB1B2CE4FF971CC4EF6790A2731
:102C400096FBF7F6032E0DDA012A05D1461C70B269
:102C50000A281BDB002019E0461E70B2002815DA96
:102C6000092013E0C14EF6790A2796FBF7F6032EEA
:102C70000CD1012A05D1461C70B2022806DB0020C7
:102C800004E0461E70B2002800DA01200E18B74F8B
:102C9000FE71A8E0032D60D113BBB44E36780A272D
:102CA00096FBF7F670B2B14E367800EB8007A6EBD4
:102CB0004706B1B2AE4F3970012A05D1461C70B239
:102CC000032806DB002004E0461E70B2002800DA6C
:102CD000022000EB800601EB4606A44F3E7082E026
:102CE000012B39D1A14E36780A2796FBF7FC07FB5A
:102CF0001C6670B29D4E3678361AB1B29C4F397050
:102D00009A4E36780A2796FBF7F6022E0DDA012A3C
:102D100005D1461C70B20A281BDB002019E0461EB4
:102D200070B2002815DA092013E0904E36780A2791
:102D300096FBF7F6022E0CD1012A05D1461C70B283
:102D4000052806DB002004E0461E70B2002800DAE9
:102D500004200E18854F3E7045E0042D43D113BB6F
:102D6000824E76780A2796FBF7F670B27F4E767819
:102D700000EB8007A6EB4706B1B27D4F7970012AC0
:102D800005D1461C70B2062806DB002004E0461E72
:102D900070B2002800DA052000EB800601EB460641
:102DA000724F7E701FE0012B1DD1704E76780A277E
:102DB00096FBF7FC07FB1C6670B26C4E7678361AF1
:102DC000B1B26B4F7970012A05D1461C70B20A2846
:102DD00006DB002004E0461E70B2002800DA09205D
:102DE0000E18624F7E70F0BD1CB562480078012855
:102DF00023D1FFF79EFA5D485F490A6802604A687E
:102E00004260098901815A485B490A6802604A6840
:102E100042600989018155488088A0F5FA600A213D
:102E200090FBF1F000EB800051498988A1EB400054
:102E30004F49888000204F49087050494B4802682C
:102E40000A6042684A60008908814D480078062877
:102E50007ED2DFE800F0030F33414F5D4948007830
:102E60000A2803DA01204649087002E00520444997
:102E7000087079E04448007808280BD1434800786E
:102E8000092803DD05203E49087016E002203C4970
:102E9000087012E03C480078102803D1032038491C
:102EA00008700AE038480078202803D1042034490B
:102EB000087002E000203249087055E0324800787E
:102EC00048B932480078401C3049087000202D492C
:102ED00008702B49087047E02B48007848B9012159
:102EE0002A480078FFF79CFD0020264908702449F5
:102EF000087039E02448007848B900212348007858
:102F0000FFF78EFD00201F4908701D4908702BE057
:102F10001949164802680A6042684A6000890881B7
:102F200001214FF0C05004F04FF8012005F0B1FA34
:102F30001148837842780446CDE900232378E2796A
:102F4000A179A088FFF772FA45F25001042000E051
:102F500009E005F05EFA00200A4908700C49087083
:102F60000749087000E000BF00BF1CBD90090020A9
:102F70009A090020A800002086090020A40900204A
:102F80008E0000209504002075000020980000208D
:102F9000A700002070B504460D4600261BE014F083
:102FA000800F03D100208A49086002E0012088498F
:102FB00008600020874908604FF0050002F02DFFEF
:102FC00001208549C1F894016006040E052002F035
:102FD00024FF701CC6B2AE42E1DB70BD10B50446E2
:102FE00000207E4908604FF0050002F016FF042122
:102FF0008020FFF7CFFF08212046FFF7CBFF0520F9
:1030000002F00BFF01207449C1F88C0110BD08B516
:103010000121042003F0CBFF7820ADF80000102040
:103020008DF8030003208DF8020069466C4803F018
:103030000BFD78216A4803F0B2FD482002F0BEFE85
:103040000020FFF7CBFF052002F0E7FE0220FFF78C
:10305000C5FF052002F0E1FE0420FFF7BFFF0520B9
:1030600002F0DBFE0620FFF7B9FF052002F0D5FED7
:1030700008BD70B504460D4600261AE014F0010F95
:1030800003D100205249086002E001205049086045
:103090000020504908604FF0050002F0BEFE0120FC
:1030A0004D49C1F894016410052002F0B6FE701C71
:1030B000C6B2AE42E2DB70BD70B505460C460020DC
:1030C000464908604FF0050002F0A7FE0321A0204A
:1030D000FFF760FF06212846FFF75CFF0821204626
:1030E000FFF7C7FF052002F098FE01203A49C1F81A
:1030F0008C0170BD70B506460C460020374908604B
:103100004FF0050002F089FE0321A020FFF742FFE7
:1031100006213046FFF73EFF002505E00821204646
:10312000FFF7A7FF681CC5B2202DF7DB052002F0D2
:1031300074FE01202949086070BD70B50546002065
:10314000264908604FF0050002F067FE0321A02029
:10315000FFF720FF06211020FFF71CFF002405E0E9
:10316000285D0821FFF785FF601CC4B2092CF7DB3E
:10317000052002F052FE01201849086070BD2DE9BB
:10318000F04106460C4617460020144908604FF0EF
:10319000050002F042FE0321A020FFF7FBFEE1063E
:1031A000080E0621FFF7F6FE002506E02919705CDF
:1031B0000821FFF75EFF681CC5B2BD42F6DB0520A3
:1031C00002F02BFE012005490860BDE8F0810000F7
:1031D0009801214294012142000021428C012142A8
:1031E0000008014021B1028C42F00102028403E098
:1031F000028C22F00102028470470A4600210189F4
:103200004FF6F87319401143018170470A460021B7
:10321000018B4FF60F7319401143018370470A4623
:103220000021018B4FF6F37319401143018370475E
:103230000A460021018B4FF6FC73194011430183AC
:1032400070470A46002101894FF2FF0319401143DC
:10325000018170470A46002101894CF6FF7319402D
:1032600011430181704721B1028942F40042028179
:1032700003E0028922F400420281704721B10289F1
:1032800042F48042028103E0028922F480420281FA
:1032900070477FB504460D460121022003F094FEDD
:1032A000C820ADF8080041F61F40ADF8040000202A
:1032B000ADF80A00ADF8060001A98F4804F072F8D5
:1032C000012241218C4804F0C2FB1D208DF8000032
:1032D00000208DF8010002208DF8020001208DF8F9
:1032E0000300684603F03BFA0121834804F089FBA0
:1032F0000121084603F068FE42F20F70ADF80800A5
:1033000041F61F40ADF804000020ADF80A00ADF80A
:10331000060001A94FF0804004F044F84FF08040CF
:1033200004F0B4FB00214FF08040FFF7A7FF2021FD
:10333000480604F0D6FD01224121880704F087FBEE
:103340001C208DF8000000208DF8010001208DF870
:1033500002008DF80300684603F001FA0121880796
:1033600004F04FFB0121C80203F021FE4FF6FF706D
:10337000ADF808000020ADF80400ADF80A00ADF883
:10338000060001A95D4804F00DF801215B48FFF734
:1033900075FF00215948FFF766FF4FF40051574869
:1033A000FFF758FF00215548FFF74BFF0321534813
:1033B000FFF73EFF00215148FFF731FF00214F4842
:1033C000FFF724FF10214D4804F066FB04214B4811
:1033D000FFF713FF01214948FFF704FF01224321B2
:1033E000464804F034FB1B208DF8000000208DF8C7
:1033F00001008DF8020001208DF80300684603F0FB
:10340000AEF901213D4804F0FCFA0121042003F04B
:10341000DBFD0920ADF8080041F61F40ADF80400BF
:103420000020ADF80A00ADF8060001A9344803F009
:10343000B9FF01224121324804F009FB1E208DF81A
:10344000000000208DF8010003208DF8020001200B
:103450008DF80300684603F082F90121284804F042
:10346000D0FA7FBD10B50221244804F08AFDC0B116
:103470000021234804F0C5FA0221204804F092FDFF
:103480001E4804F05FFD1F49086000201E490880A7
:103490004FF08041A1F824084FF00101184804F0D2
:1034A000B0FA10BD10B50121880704F06AFD18B10B
:1034B0000121880704F076FD10BD10B501210E48EA
:1034C00004F05FFD18B101210B4804F06BFD10BD45
:1034D00010B501210A4804F054FD58B101210848F3
:1034E00004F060FD09480068401C0849086001209C
:1034F0000749087010BD000000040040002C014086
:10350000000800409C000020242C01407000002096
:103510008204002010B50024C2480078C249087017
:10352000C24803F02BFB841284F03F0400BFC04864
:103530000078401CBE49087008460078012801D177
:10354000BC480470BB480078A04205D1BA48007856
:10355000401CB949087004E00020B7490870B4491C
:103560000870B5480078012808DD0020B2490870CD
:10357000AF490870AF480078AA490870AA48007897
:1035800008286BD007DC68B101287CD002287BD0EA
:10359000042862D137E1102877D0202876D030284F
:1035A0005BD106E1A548007801283AD1A44800780B
:1035B000042805DD0120A3490870A34908702AE00A
:1035C000A2480078022803DCA1480078022822DA09
:1035D0009F4801780078401C9D4A1070022902DD46
:1035E0000A201146087001209A49087000209A4963
:1035F0000860964908700120984908709849087039
:1036000000209849087001209749087000209749C8
:10361000087002F0ABFF00208949087087490870E4
:1036200012E09348007801280ED1854800780428DC
:1036300005DD02208349087001208E4908700020B2
:103640007F4908708A4908707E48007810B90020C8
:103650007B490870002088490870E0E086480078BF
:10366000F0BB012084490870844908700020844917
:1036700008707448007898BB7648007838B9012003
:103680006E4908703AE0A6E0B1E038E062E06F48C9
:103690000078022803DC6E48007802282EDA6C4895
:1036A00001780078401C6A4A1070022902DD0A2065
:1036B0001146087000206749087072490870724905
:1036C000087072490870664908706049087063495B
:1036D00008706F490870012062490870002000E0FE
:1036E0000CE06C4908706C49087001205E49087054
:1036F0006A4908706A49087002F038FF8FE05E4836
:10370000007830BB01205C4908705C4908700020DB
:103710005B4908704B480078D8B94E4800780128BA
:1037200017D15848007801280AD10020554908705F
:103730005849087001205949087002F017FF08E045
:103740000120564908704F4908705249087002F02C
:103750000DFF64E04848007850BB012046490870DE
:103760004649087000204649087036480078F8B984
:103770003848007801281BD14348007801280AD135
:1037800000204149087044490870012044490870EC
:1037900002F0ECFE0CE001203B4908703E49087045
:1037A00000203249087001203D49087002F0DEFE19
:1037B00035E03148007868B901202F4908702F4959
:1037C000087000202E4908702248007810B90120A6
:1037D0002749087023E02848007838B90120264995
:1037E00008702649087000202549087017E0224813
:1037F000007838B90120204908702049087000205D
:103800001F4908700BE01C48007838B901201A499C
:1038100008701A49087000201949087000BF00BFDD
:1038200010BD0000A200002075000020000C014027
:10383000A3000020A5000020A4000020A600002076
:1038400095040020A7000020A8000020AD00002063
:10385000A1000020A90000204C00002084040020CA
:10386000830400208C040020110900209204002011
:10387000AC000020AC080020A00000205000002078
:1038800081040020AA000020AB0000208B0400204F
:10389000AE000020850400208604002012090020CC
:1038A00013090020F0B5024600230025E62600207B
:1038B000FF4F3870FF48B0F89A0390425ED3FD483E
:1038C000408890425AD8A81900EBD077C7F3470335
:1038D000F84800EB83004088904203D1F54830F867
:1038E0002300F0BDF34800EB83004088904201D2F2
:1038F0001D4600E01E4629463DE0E12902DD01208B
:10390000EB4F3870EB4800EB81004088904203D1C8
:10391000E84830F8214041E0E64800EB810040886B
:10392000904226D2E34F481C07EB8000408890422B
:103930001FD9481C37F8200037F82170C01BDD4F15
:1039400007EB81077F88D71B7843DFF868C34F1CDC
:103950000CEB87077F880CEB810CBCF802C0A7EB4F
:103960000C07B0FBF7F0D34F37F82170384484B21E
:1039700014E0481CC1B2B142BFDD0EE0CD48B0F842
:103980009A03904203D3CB484088904205D9012046
:10399000C74F38704FF6FF7400E000BF2046A0E725
:1039A00070B5C548006880000A21B0FBF1F52846D3
:1039B000FFF778FFC1490880BD480078098801EB0E
:1039C0000040BF490860BF480078142816DDBE4893
:1039D0000078012812D108460068BC49096888426D
:1039E0000CD9BB48B0F90000BA49B1F900108842BF
:1039F00004DA0120B8490870B8490870B84800785E
:103A0000C8B30020B74908740846007CB649497B12
:103A100041F001010843B34908740846407C00F0B6
:103A2000010048740846407CAF49097B0843AD4912
:103A300048740846807C00F0010088740846807C49
:103A4000A949897A0843A74988740846C07C00F0D0
:103A50000100C8740846C07CA349897A0843A1497B
:103A6000C874002008750846007D9F49897A08437C
:103A70009C4908755DE1FFE793480078F0B39048F2
:103A800000689A4988423DD100209649087408464A
:103A9000007C9549097841F0010108439149087477
:103AA0000846407C00F0010048740846407C8E497E
:103AB000097808438B4948740846807C00F001006F
:103AC00088740846807C8849097808438549887449
:103AD0000846C07C00F00100C8740846C07C8249DA
:103AE000097808437F49C874002008750846007D9E
:103AF0007D49497841F00101084300E0B6E0794989
:103B0000087516E16E48006879490860002411E0E4
:103B1000774800680A21B0FBF1F201FB12007549F9
:103B20000855734800680A21B0FBF1F0704908603D
:103B3000601CC4B2052CEBDB6D48006830B16948ED
:103B4000007D40F001006749087505E06548007D8B
:103B500020F00100634908756248007C00F0010014
:103B6000604908740846007C624909785E4A515CE5
:103B700041F0010108435B4908740846407C00F0AD
:103B8000010048740846407C5A494978515C084312
:103B9000544948740846807C00F001008874084647
:103BA000807C54498978515C08434E4988740846A2
:103BB000C07C00F00100C8740846C07C4D49C9783B
:103BC000515C08434749C8740846007D00F0010075
:103BD00008750846007D47490979515C0843414909
:103BE000087545480078F0BB41480068D8BB41489B
:103BF0000079C0BB0846007D00F00100087508464A
:103C0000007D1146897A0843364908753948C078DD
:103C100048BB0846C07C00F00100C8740846C07C60
:103C20001146897A08432F49C87432488078D0B940
:103C30000846807C00F0010088740846807C1146AC
:103C4000897A0843274988742A48407858B9084631
:103C5000407C00F0010048740846407C1146897A97
:103C60000843204900E064E0487462E01D48007C9D
:103C700000F001001B4908740846007C1A49897A43
:103C800041F001010843174908740846407C00F0E0
:103C9000010048740846407C1349897A0843114959
:103CA00048740846807C00F001008874084625E0CE
:103CB000B0000020B20000209C000020540400202E
:103CC000580400209204002086040020680400208C
:103CD000840800208A080020AA0000208504002013
:103CE000B30800206609002014000020FFFF010037
:103CF000640400205C040020B1080020807CFD49A1
:103D0000897A0843FC4988740846C07C00F00100A9
:103D1000C8740846C07CF749897A0843F649C874D4
:103D2000002008750846007DF249897A0843F24967
:103D30000875F2480078E8B3F1480068F149086076
:103D4000002411E0EF4800680A21B0FBF1F201FB0A
:103D50001200ED490855EB4800680A21B0FBF1F06C
:103D6000E8490860601CC4B2052CEBDBE54800683C
:103D700030B1E148007D40F00100DF49087505E001
:103D8000DD48007D20F00100DB490875DA48007C41
:103D900000F00100D84908740846007CDA49097827
:103DA000D44A515C41F001010843D34908740846E4
:103DB000407C00E031E000F0010048740846407C9F
:103DC000D1494978515C0843CB4948740846807C06
:103DD00000F0010088740846807CCB498978515CEA
:103DE0000843C54988740846C07C00F00100C874C7
:103DF0000846C07CC449C978515C0843BE49C874B0
:103E00000846007D00F0010008750846007DBE49A7
:103E10000979515C0843B8490875BC480078012805
:103E200008D1BB48007828B1B348007C00F0FE0000
:103E3000B1490874B648007848B3B0480078012802
:103E400025D1B448007830B9AB48007D00F0FE00C1
:103E5000A94908751BE0AF480078C0F11500A649D4
:103E6000085C00F00100AB490978C1F11501A24AD4
:103E70005054A8480078C0F115001146085C9D49CF
:103E8000897A0843A3490978C1F1150150540522E4
:103E900010219948FFF773F970BD70B502460B46C3
:103EA000EAB9974C24689C4DB4FBF5F06C1144437F
:103EB000934D2D68A5EB4411012B04D1401C022821
:103EC00005DB002003E0401E002800DA012040F658
:103ED0003544444301EB4414894D2C60B6E0012A7B
:103EE00023D1874C24688C4DB4FBF5F605FB1640B6
:103EF00042F2107490FBF4F024114443804D2D687D
:103F0000A5EB0411012B04D1401C0A2805DB00207D
:103F100003E0401E002800DA092040F271244443E7
:103F200001EB0414764D2C6090E0022A27D1744CEA
:103F3000246842F21075B4FBF5F605FB16404FF409
:103F40007A7490FBF4F000EB4004C4EBC0146C4DA9
:103F50002D68A5EBC401012B04D1401C0A2805DB08
:103F6000002003E0401E002800DA092000EB400496
:103F7000C4EBC01401EBC404614D2C6066E0032A5D
:103F800026D15F4C24684FF47A75B4FBF5F605FB37
:103F90001640642490FBF4F000EBC00404EB001422
:103FA000574D2D68A5EB8401012B04D1401C0A2834
:103FB00005DB002003E0401E002800DA092000EBAA
:103FC000C00404EB001401EB84044D4D2C603DE073
:103FD000042A21D14A4C24686425B4FBF5F605FB7C
:103FE00016400A2490FBF4F000EB8004444D2D6849
:103FF000A5EB4401012B04D1401C0A2805DB00205D
:1040000003E0401E002800DA092000EB800401EBE9
:1040100044043B4D2C6019E0052A17D1384C246824
:104020000A25B4FBF5F605FB1640354C2468211A29
:10403000012B04D1401C0A2805DB002003E0401EB0
:10404000002800DA09200C182D4D2C6070BD10B529
:1040500032480078012806D13148006828490860B4
:1040600000202E4908702F48006806287CD2DFE81F
:1040700000F0030F335F6D7C2B4800780A2803DAC9
:1040800001202849086002E00520264908608DE0EB
:104090002648007808280BD11E480078052803DD43
:1040A00005202049086016E002201E49086012E041
:1040B0001E480078102803D103201A4908600AE03E
:1040C0001A480078202803D104201649086002E02D
:1040D00000201449086069E01448007848B90D4888
:1040E0000078401C0B49087000200F4908700D49EA
:1040F00008605BE01400002066090020B108002081
:104100006C040020640400205C040020AD08002042
:104110009304002098000020A0860100A800002041
:104120006804002050040020950400207500002041
:104130001F48007848B901211E480078FFF7ADFEFE
:1041400000201D4908701D4908602FE018480078BC
:1041500048B9002117480078FFF79FFE0020164954
:1041600008701649086021E01FE0154800681549ED
:104170000860002010490870134908700F49086052
:104180000C490870114908701149087011490870EC
:1041900011490870114908701149087011490870D7
:1041A0001149087001F0BCFD00E000BF00BF10BD68
:1041B0007500002098000020950400205004002085
:1041C0006C04002068040020A7000020AB08002039
:1041D000AF080020AD080020B1080020AC08002086
:1041E000B0080020AA080020AE08002070B5002505
:1041F0000026634805884FEA05456248B0F81C0868
:10420000054461480078012815D1604800780128EC
:1042100004D15F48056000205C4908705C48006874
:10422000281A5C490860084600683C21B0FBF1F0A0
:104230005849086002E00120544908705548006858
:1042400055490860002411E0534800680A21B0FB7A
:10425000F1F201FB1200514908554F4800680A214C
:10426000B0FBF1F04C490860601CC4B2042CEBDBDD
:10427000494800684949087100204949C872084600
:10428000C07A46490978474A515C41F00101084328
:104290004349C8720846007B00F0010008730846D5
:1042A000007B3E494978515C08433D490873084604
:1042B000407B00F0010048730846407B374989780D
:1042C000515C0843364948730846807B00F0010082
:1042D00088730846807B3149C978515C084330496E
:1042E00088730846C07B00F00100C8730846C07B95
:1042F0002A490979515C08432949C873274800793C
:10430000C0BB0846C07B00F00100C8730846C07BF4
:104310001146897A08432249C8732048C07848BBAF
:104320000846807B00F0010088730846807B1146B8
:10433000897A08431A49887318488078D0B90846A2
:10434000407B00F0010048730846407B1146897AA3
:104350000843134948731148407858B90846007B10
:1043600000F0010008730846007B1146897A084373
:104370000B49087305220B210948FEF700FF70BDA9
:10438000182800400020004084040020740400200D
:10439000700400204C000020780400207C040020E1
:1043A00066090020140000207047704710B59E4831
:1043B000007820B101F039FF00209B49087010BD42
:1043C00010B5FFF7A7F8FEF7A3F9FFF7E9FAFFF733
:1043D0000DFF00F0ECFA9548007801F0BEF9944822
:1043E0000078FDF795FB93480078012802D1FEF78D
:1043F000FBFC21E08F480078022802D101F0FBF994
:104400001AE08C480078032802D100F0FDFE13E08A
:1044100088480078042802D100F0B5FF0CE08548F8
:104420000078052802D101F04BFB05E081480078B7
:10443000062801D1FFF70BFE7F4801780078401C69
:104440007D4A1070012905DB002079490870C820D9
:1044500011460870794801780078401C774A10703E
:1044600005290ADB0020114608707248007820B147
:1044700073480078C0437249087010BD10B5714888
:1044800001780078401C6F4A10700A2902DD0A206A
:10449000114608706C48007801F02CF86B480078E1
:1044A00001F0AEF86A48007801F0D7F86948007862
:1044B00001F0FBF86848007801F01FF901F08FFB6C
:1044C00066480078FDF73DFE65480078782802DDF3
:1044D00000206449087063480078FDF746FE624892
:1044E0000078FDF74CFE61480078FDF752FE604809
:1044F00001780078401C5E4A1070022902DBC82057
:104500001146087010BD10B55A48007808B101F086
:1045100061FF594801780078401C574A1070032900
:1045200001DD02F023F810BD70475448017800788F
:10453000401C524A10700A2902DD0A2011460870F8
:10454000474801780078401C454A1070962902DDE2
:10455000962011460870704710B549480078F0B3AE
:1045600000BFFFF721FF474800680521B0FBF1F2CB
:1045700001FB120008B9FFF718FF424800680A2142
:10458000B0FBF1F201FB120008B9FFF70FFF3D4845
:104590000068642809D3FFF713FF3B480078401CEC
:1045A00039490870002037490860374800780A28E0
:1045B00013DBFFF763FF00203349087033480078AE
:1045C000401C3249087032480078401C304908705D
:1045D00030480078401C2F4908702C4800E021E04A
:1045E0000078022804DBFFF78EFF002027490870BF
:1045F000274800780A2809DBFFF796FF00202449A6
:10460000087025480078401C23490870224800782B
:10461000062804DBFFF789FF00201F4908700020EF
:104620001749087010BD00001D090020B2080020C5
:1046300050000020A70000208104002094040020E6
:1046400093040020960400208304002084040020AA
:104650008504002086040020870400208B040020AD
:10466000AE0000208C040020890400208A04002071
:1046700092040020100900208D040020AD000020CD
:1046800082040020700000208E0400208F0400208F
:1046900090040020950400209104002008B5012119
:1046A000084602F077FC01214FF4017002F07FFC14
:1046B0000120ADF8000000208DF803006946FF4896
:1046C00002F0C2F90220ADF8000000208DF80300CE
:1046D0006946FB4802F0B8F908BD00B591B0F94849
:1046E00003F038FFF8480690F8480790002008903B
:1046F0000220099000200A9080200B9040000C902E
:1047000080000D9020200E9000020F90002010904D
:1047100006A9EC4803F0BEFF0121EA4803F0E5FFDB
:104720000020019001208DF808008DF809004FF459
:10473000602003900020049002208DF8140001A94D
:10474000E1484C3804F051F84FF4404002F097FB38
:10475000052301220021DC484C3804F0DEF8052353
:1047600002220121D8484C3804F0D7F80121D6485C
:104770004C3804F071F80121D3484C3804F061F84A
:10478000D1484C3804F07FF800BFCF484C3804F0D3
:104790007FF80028F9D1CC484C3804F083F800BFEA
:1047A000C9484C3804F083F80028F9D10121C648E3
:1047B0004C3804F086F800BF022003F0B1FF002857
:1047C000FAD011B000BD10B5FFF768FFFFF785FF05
:1047D00010BD2DE9F84F804689460027BA460020D3
:1047E000009000269BE0BA4800EB06108089B8498B
:1047F00001EB0611C881B64800EB06104089B449A8
:1048000001EB06118881B24800EB06100089B0491F
:1048100001EB06114881AE4800EB0610C088AC4998
:1048200001EB06110881AA4800EB06108088A84910
:1048300001EB0611C880A64800EB06104088A44989
:1048400001EB06118880A24800EB06100088A04901
:1048500001EB06114880B9F800009D4901EB0611F3
:1048600008809B4901EB0611C989994A02EB06129F
:1048700092891144964A02EB061252891144944AD5
:1048800002EB061212891144914A02EB0612D288F9
:1048900011448F4A02EB0612928811448C4A02EBB3
:1048A0000612528811448A4A02EB061212888818AE
:1048B000C11700EB51714FEAE10A00BF3846791C7D
:1048C000CFB2844951F820005045F7D8084650F837
:1048D0002710781E7F4A52F82000091A781E52F8D5
:1048E0002000AAEB0000B0FBF1FB584604F0A0FC4E
:1048F00004460022784B04F039FD01D8781CC7B279
:10490000A7F1010AAAF1790000900098A8F8000028
:1049100008F1020809F102090027701CC6B2022E34
:10492000FFF661AFBDE8F88F30B50246002100BF49
:104930000B464C1CE1B2694C34F923309342F7DB4F
:104940004B1E34F92330934201D0012906D14B1E6E
:10495000624C04EB8303B3F9020027E000BF4B1E57
:104960005E4C04EB83035C888B1E5C4D05EB83037C
:104970005B88E31A8C1E35F82440141B64256C43B5
:10498000634318B24B1E554C34F923408B1E534DD4
:1049900035F92330E31A90FBF3F3642493FBF4F42A
:1049A0008B1E05EB83035B88234418B230BD70B5C2
:1049B00046494B48FFF70DFF4948008849490880A0
:1049C0000846B0F90000FFF7AFFF4649B1F9001003
:1049D00048434FF47A7190FBF1F000B241490880EE
:1049E0000846B0F900604048007879280DDA3F4861
:1049F000007850B90846B0F900003D49B1F90010FF
:104A0000884202DD00203B4908703B48007810B125
:104A10003748B0F90060002E05DD00203749C87521
:104A200037490E8009E03548C07D40F00100334928
:104A3000C875704206B232490E80002411E0304839
:104A400000880A2190FBF1F201FB12002D49085564
:104A50002B4800880A2190FBF1F029490880601C4E
:104A6000C4B2022CEBDB264800882649887000205F
:104A7000224948750846407D22490978224A515CFE
:104A800041F0010108431D4948750846807D00F04A
:104A9000010088750846807D1A494978515C0843B1
:104AA000164988750846C07D00F00100C8750846A3
:104AB000C07D14498978515C084327E00008014013
:104AC00000100140080002404C2401409C080020D6
:104AD000AE090020980400200000E03F40080020BC
:104AE0007C08002084080020AE0000208404002000
:104AF0008A0800208C040020AF08002066090020EE
:104B0000940800209008002014000020FA49C8757D
:104B1000FA48B0F9000010F1780F21DA002048754A
:104B20000846407D1146097B41F001010843F249E6
:104B300048750846807D00F0010088750846807D34
:104B40001146097B41F001010843EB4988750020BB
:104B5000C8750846C07D1146897A0843E649C8757C
:104B6000E648B0F9000010F15A0F22DA0020E249BD
:104B700048750846407DE249C97B41F00101084380
:104B8000DD4948750846807D00F0010088750846BB
:104B9000807DDB49C97B41F001010843D649887516
:104BA0000020C8750846C07DD549897A0843D24996
:104BB000C875D4480078F0B9D3488078D8B9CE48C1
:104BC000C07D00F00100CC49C8750846C07DCC49C5
:104BD000897A0843C849C875CB48407858B908460F
:104BE000807D00F0010088750846807DC449897A7F
:104BF0000843C1498875C5480078012808D1C448D0
:104C0000007828B1BC48407D00F0FE00BA494875E4
:104C1000BF48007848B3BB480078012825D1BD487B
:104C2000007830B9B448C07D00F0FE00B249C875C4
:104C30001BE0B8480078C0F11800AF49085C00F0EC
:104C40000100B4490978C1F11801AB4A5054B14888
:104C50000078C0F118001146085CA949897A084318
:104C6000AC490978C1F11801505403221521A2481A
:104C7000FEF785FAA8484088A84908800846B0F998
:104C80000000FFF751FEA549B1F9001048434FF469
:104C90007A7190FBF1F000B2A04908800846B0F9A3
:104CA00000509F480078052816DD0846B0F900003E
:104CB0009C49B1F90010884209DC9B480078012822
:104CC00005D19A49087000209549087004E0002039
:104CD00096490870924908709548007810B191483B
:104CE000B0F90050002D05DD0020834988769149F8
:104CF0000D8009E08048807E40F001007E49887682
:104D0000684205B28B490D80002411E08948008873
:104D10000A2190FBF1F201FB1200874908558548F2
:104D200000880A2190FBF1F082490880601CC4B21F
:104D3000022CEBDB7F4800887F49887000206E4999
:104D400008760846007E7C4909786D4A515C41F03E
:104D500001010843684908760846407E00F00100DA
:104D600048760846407E74494978515C41F001011B
:104D70000843614948760846807E00F00100887645
:104D80000846807E6C498978515C08435A49887688
:104D90006248B0F9000010F1780F21DA002008769F
:104DA0000846007E1146097B41F001010843524943
:104DB00008760846407E00F0010048760846407EAE
:104DC0001146097B41F0010108434B494876002018
:104DD00088760846807E1146897A08434649887657
:104DE0004E48B0F9000010F15A0F22DA0020424973
:104DF00008760846007E4249C97B41F0010108431C
:104E00003D4908760846407E00F001004876084695
:104E1000407E3B49C97B41F0010108433649487651
:104E2000002088760846807E3549897A08433249D1
:104E300088763F480078F0B93F488078D8B92E4846
:104E4000807E00F001002C4988760846807E2C493F
:104E5000897A0843284988763748407858B90846FF
:104E6000407E00F0010048760846407E2449897A59
:104E700008432149487631480078012808D1244860
:104E8000007828B11C48007E00F0FE001A49087620
:104E90001F48007848B326480078012825D11D48CE
:104EA000007830B91448807E00F0FE001249887600
:104EB0001BE018480078C0F11B000F49085C00F0A7
:104EC000010014490978C1F11B010B4A50541148E3
:104ED0000078C0F11B001146085C0949897A084333
:104EE0000C490978C1F11B015054032218210248D2
:104EF000FEF745F970BD0000660900208408002017
:104F000014000020AF08002090080020AB0800200B
:104F100093040020980000207C08002086080020D0
:104F20009604002088080020840400208B040020C0
:104F3000AE0800209A08002096080020AA08002049
:104F400070B502460B46FA4CB4F90040002C03DB66
:104F50000124F84D2C7002E0FF24F64D2C7032B97C
:104F6000F34C2488644224B2F14D2C8094E0012A51
:104F700031D1EF4CB4F90040642594FBF5F4ED4DCC
:104F80002D786C4360B2EA4C2488EA4D95F90050C4
:104F90006C4300EBC00505EB0015A4EB8504A1B242
:104FA000012B05D1441C60B20A2806DB002004E076
:104FB000441E60B2002800DA092000EBC00404EBB4
:104FC000001401EB8404DB4D95F900506C4324B2CE
:104FD000D74D2C8060E0022A33D1D54CB4F9004083
:104FE000642594FBF5F605FB1644D24D2D786C43F1
:104FF00060B20A2490FBF4F460B2CD4C2488CD4D0D
:1050000095F900506C4300EB8005A4EB4504A1B278
:10501000012B05D1441C60B20A2806DB002004E005
:10502000441E60B2002800DA092000EB800401EB86
:105030004404C04D95F900506C4324B2BC4D2C8003
:105040002AE0032A28D1BA4CB4F900400A2594FB7F
:10505000F5F605FB1644B74D2D786C4360B2B44CA1
:105060002488B44D95F900506C43241AA1B2012B49
:1050700005D1441C60B20A2806DB002004E0441E6F
:1050800060B2002800DA09200C18AA4D95F90050EA
:105090006C4324B2A64D2C80A54CB4F90040A64D1B
:1050A0002C8070BD70B502460B46A44CB4F900408C
:1050B000002C03DB0124A24D2C7002E0FF24A04D44
:1050C0002C7032B99D4C2488644224B29B4D2C80B4
:1050D00094E0012A31D1994CB4F90040642594FB45
:1050E000F5F4974D2D786C4360B2944C2488944D20
:1050F00095F900506C4300EBC00505EB0015A4EBDF
:105100008504A1B2012B05D1441C60B20A2806DB3C
:10511000002004E0441E60B2002800DA092000EB01
:10512000C00404EB001401EB8404854D95F9005094
:105130006C4324B2814D2C8060E0022A33D17F4C35
:10514000B4F90040642594FBF5F605FB16447C4D4C
:105150002D786C4360B20A2490FBF4F460B2774C73
:105160002488774D95F900506C4300EB8005A4EB43
:105170004504A1B2012B05D1441C60B20A2806DB0C
:10518000002004E0441E60B2002800DA092000EB91
:10519000800401EB44046A4D95F900506C4324B23D
:1051A000664D2C802AE0032A28D1644CB4F90040D3
:1051B0000A2594FBF5F605FB1644614D2D786C43EA
:1051C00060B25E4C24885E4D95F900506C43241A01
:1051D000A1B2012B05D1441C60B20A2806DB0020D5
:1051E00004E0441E60B2002800DA09200C18544D77
:1051F00095F900506C4324B2504D2C804F4CB4F9BB
:105200000040504D2C8070BD10B54F4800780128EB
:1052100007D14948B0F900004549088000204A49B3
:1052200008704A48007806287DD2DFE800F0030FB6
:1052300033414F5D464800780A2803DA012043498C
:10524000087002E00520414908709AE04148007862
:1052500008280BD140480078032803DD05203B498E
:10526000087016E002203949087012E039480078C9
:10527000102803D10320354908700AE0354800782A
:10528000202803D104203149087002E000202F4972
:10529000087076E02F48007848B92F480078401C05
:1052A0002D49087000202A4908702849087068E0D4
:1052B0002848007848B9012127480078FFF740FEC8
:1052C000002023490870214908705AE021480078DD
:1052D00048B9002120480078FFF732FE00201C4921
:1052E00008701A4908704CE01148B0F900001249E2
:1052F0000880002016490870184908701349087082
:105300001549087016490870164908701649087042
:105310001649087016490870164908701649087031
:105320001649087000E02BE000F0FAFC29E00000CC
:105330008C08002078080020880800208E080020B3
:10534000790800208A080020A80000207A080020A0
:10535000950400207500002098000020A700002080
:10536000AB080020AD080020AC080020AA080020EF
:10537000AE080020AF080020B1080020B0080020CF
:1053800000BF00BF10BD10B54A480078012807D102
:105390004948B0F900004949088000204549087093
:1053A0004748007806287DD2DFE800F0030F33413C
:1053B0004F5D444800780A2803DA0120404908700C
:1053C00002E005203E49087071E03F480078082857
:1053D0000BD13E480078032803DD052038490870CA
:1053E00016E002203649087012E03748007810288D
:1053F00003D10320324908700AE03348007820289E
:1054000003D104202E49087002E000202C490870C6
:105410004DE02D48007848B92C480078401C2B49B5
:105420000870002027490870254908703FE0264889
:10543000007848B9012125480078FFF733FE0020A5
:10544000204908701E49087031E01F48007848B9AB
:1054500000211E480078FFF725FE0020194908703A
:105460001749087023E01548B0F900001249088078
:105470000020144908701649087011490870134932
:1054800008701449087014490870144908701449C8
:1054900008701449087014490870144908701449B8
:1054A000087000E002E000F03BFC00E000BF00BF3D
:1054B00010BD0000A80000208A0800208E080020EF
:1054C0007B08002095040020750000209800002033
:1054D000A7000020AB080020AD080020AC08002089
:1054E000AA080020AE080020AF080020B108002064
:1054F000B008002010B50446E4B30120FB49087051
:10550000FB48C07840F00100F949C870F9480078BC
:10551000032190FBF1F201FB1200012810D1F448A5
:10552000807800F0FE00F24988700846407900F06B
:10553000FE0048710846807940F00100887132E031
:10554000EC480078032190FBF1F201FB12000228E5
:1055500011D1E748807800F0FE00E54988700846E0
:10556000407940F0010048710846807900F0FE0063
:10557000887118E023E0DF480078032190FBF1F206
:1055800001FB120078B9DA48807840F00100D84970
:1055900088700846407900F0FE004871084680791E
:1055A00000F0FE008871D3480078401CD149087093
:1055B0000846007803281DDD012008701AE000204D
:1055C000CA4908700120CB490870C948807840F06A
:1055D0000100C74988700846C07840F00100C870D3
:1055E0000846407940F0010048710846807940F053
:1055F0000100887105220321BD48FDF7C0FD10BDE3
:1056000010B50446BA48407840F00100B8494870E7
:105610000846407840F08000487054B10846407811
:1056200040F0200048700846407800F0BF00487005
:105630000AE0AF48407840F04000AD494870084665
:10564000407800F0DF00487001221146A848FDF7BD
:1056500096FD2046FCF761FD10BD10B50446A44838
:10566000407840F01000A249487054B108460078D4
:1056700040F0100008700846007800F0DF00087065
:105680000AE09B48007840F02000994908700846DD
:10569000007800F0EF000870022200219448FDF726
:1056A0006EFD2046FCF743FD10BD10B50446904842
:1056B000007840F008008E49087054B10846007820
:1056C00040F0020008700846007800F0FB00087007
:1056D0000AE08748007840F00400854908700846D1
:1056E000007800F0FD000870012200218048FDF7DD
:1056F00046FD2046FCF72FFD10BD10B5044634B121
:105700007B48007840F001007949087005E078484E
:10571000007800F0FE0076490870012200217448EC
:10572000FDF72DFD10BD10B504467148807D40F099
:1057300001006F49887570480078012807D16F48CB
:10574000007820B10846807D00F0FE0088750122B7
:1057500016216748FDF713FD10BD10B504460A2C4D
:1057600006DA6348C07E00F0FE006149C87605E0B5
:105770005F48C07E40F001005D49C8765C48C07E4D
:1057800000F001005A49C8760A2094FBF0F100FBB2
:1057900011405B49085C5649C97E08435449C876A4
:1057A0000846807D40F00100887553480078012844
:1057B00007D15248007820B10846807D00F0FE00F5
:1057C00088754E48007880B14E48007801280CD189
:1057D0004748C07E00F001004549C8760846C07EB3
:1057E0004749897A08434249C87601221B2140482B
:1057F000FDF7C5FC10BD4448007806286FD2DFE8ED
:1058000000F0030F2BB6E9FB404800780A2803DAC2
:1058100001203D49087002E005203B49087027E15E
:105820003B480078082803D102203749087012E06D
:1058300037480078102803D10320334908700AE064
:1058400033480078202803D104202F49087002E053
:1058500000202D4908700BE12D480078F0BB2D4841
:10586000007898B100202B49087001202A4908705F
:1058700000202A4908702A4908702249087003202C
:10588000284908700120284908706AE027480078F4
:1058900098B10020204908702449087001201F4950
:1058A000087000201E4908701649087004201D4920
:1058B000087001201C49087053E00F480078B8B305
:1058C00000201549087015490870154908700A49E3
:1058D000087001200B490870052001E046E0C6E091
:1058E000104908700120104908703AE0890400202E
:1058F00066090020A5080020AC08002093040020C1
:1059000014000020B0080020A60800209504002004
:1059100075000020AA080020AE080020AF08002073
:10592000B1080020A7000020A8000020AB0800203C
:10593000FFE7B0480078A0B10020AF490870AF4938
:105940000870AF4908700120AE4908700020A949CD
:105950000870AD4908700620AC4908700120AC49B8
:1059600008700020AB490870AB49087080E0AB4874
:10597000007870BBAA48007850B10120A94908708E
:105980000020A74908709B4908709B4908701BE0DC
:10599000A448007850B10020A2490870A0490870BE
:1059A000944908700120944908700DE091480078EE
:1059B00050B100209B4908700120994908700020CF
:1059C0008C4908708C4908700020934908709149EF
:1059D00008704DE09148007880BB9248007860B133
:1059E00000209049087001208D49087000208149ED
:1059F0000870814908701CE021E07F48007850B1B0
:105A0000012088490870002085490870794908708C
:105A1000794908700DE08248007850B10020814932
:105A200008707F490870012072490870002072498F
:105A300008700020784908707649087018E0002046
:105A40007549087071490870724908707449087086
:105A50006849087068490870724908706749087099
:105A600067490870674908706749087000E000BF1F
:105A700000BF704710B50246EAB96B4B1B7858B2AD
:105A800001290BD10A2801D10C2012E00C2801D1E8
:105A900012200EE012280CD10A200AE0122801D1AF
:105AA0000C2006E00C2801D10A2002E00A2800D1CF
:105AB00012205D4C20705C4B1B785C4C237010BD39
:105AC00010B553480078012805D10A2056490870BE
:105AD00000204F4908705648007806287CD2DFE83D
