:020000040800F2
:10000000000400203B020008A93B0008D12A000898
:10001000A53B0008751C00086D7200080000000078
:10002000000000000000000000000000D5510008A2
:100030009D1E000800000000914700080D560008B2
:100040005B0200085B0200085B0200085D4B0008D1
:100050005B0200085B0200085B0200085B0200080C
:100060005B0200085B0200085B0200085B020008FC
:100070005B0200085B0200085B0200085B020008EC
:100080005B0200085B0200085D1500086972000849
:100090006B7200085B0200085B0200085B0200084C
:1000A0005B0200085B0200085B0200087156000852
:1000B000C1560008F5560008115700085B020008F9
:1000C0005B0200085B0200085B0200085B0200089C
:1000D0005B020008A95B00088D5C00085B02000859
:1000E0005B0200085B020008677200085B02000800
:1000F0005B0200085B0200085B0200085B0200086C
:100100005B0200085B0200085B0200085B0200085B
:10011000315B0008715B00085B0200085B020008AD
:100120005B0200085B0200085B0200085B0200083B
:1001300000F002F800F070F80AA090E8000C824489
:100140008344AAF10107DA4501D100F065F8AFF266
:10015000090EBAE80F0013F0010F18BFFB1A43F0A5
:1001600001031847142D0100342D010010F8013B44
:100170000A4413F0030408BF10F8014B1D1108BF17
:1001800010F8015B641E05D010F8016B641E01F8C5
:10019000016BF9D1002D15D010F8014B03F00C03C1
:1001A0000C2BA1EB04040ABF10F8013BA4EB831451
:1001B000A4EB032405F1010314F8016B5B1E01F8A5
:1001C000016BF9D5914238BF10F8013BD1D370478C
:1001D0000023002400250026103A28BF78C1FBD850
:1001E000520728BF30C148BF0B60704766290BF02B
:1001F000C081642900F08280002070471FB50BF099
:1002000006F900F079FC0400002000210AF080F9D2
:10021000E0601FBD10B510BD00F072FD1146FFF784
:10022000EDFF07F04BFB00F090FD03B4FFF7F2FF8A
:1002300003BC07F0E3F8000070470B4880470B4908
:1002400081F308880A480047FEE7FEE7FEE7FEE77D
:10025000FEE7FEE7FEE7FEE7FEE7FEE705480649A4
:10026000044A064B70470000390200081060002065
:1002700031010008105800201060002010580020A4
:10028000704700000FB41CB5074B06AA7B446946B3
:100290000090059800F00FFC0020694600F01EFC5D
:1002A0001CBC5DF814FB00004D08000070B504464E
:1002B000856900683026C10600D42026C00708D012
:1002C00070BDD4E9012130469047206A00F1010059
:1002D00020626D1EF5D570BD70B504468569006855
:1002E000C00708D170BDD4E9012120209047206AC1
:1002F00000F1010020626D1EF5D570BD2DE9F041C1
:100300008046002610687529414615A512D0AFF326
:100310000080002803DAC0F1000012A508E0D8F838
:1003200000108A0701D510A502E0490704D50FA5E2
:10033000012601E0AFF30080002408F1240704E067
:1003400000F0D1FB30313955641C0028F8D1334618
:100350002A4621464046BDE8F04100F045B900007C
:10036000000000002D0000002B0000002000000015
:100370002DE9F05F4FF0000B044689464FF0010A6B
:10038000C0F820B02046E168884798B3252806D0F9
:10039000D4E901219047206A401C2062F2E7444FD3
:1003A00000267F442046E16888472028054608DB70
:1003B000312D06D207EB050010F8200C08B10643DA
:1003C000F0E7B00701D526F00406C4F81CB00027FA
:1003D000C4F818B02A2D0ED05246A5F130010A29D2
:1003E0002ED2BAF1000F2BD0924604EB8708C8F842
:1003F00018101AE059E059F8041B204604EB870254
:100400009161E1688847012F05461BD1E06900280A
:1004100023DA26F0200620E0D8F8180000EB800050
:1004200005EB40003038C8F818002046E1688847DE
:10043000A0F1300105460A2902D2BAF1000FEBD132
:10044000012F0AD02E2D08D12046E16888477F1C55
:100450000546022F46F02006BCDBA069002803DA1F
:10046000404246F00106A061F00701D026F01006D8
:10047000DDB1A5F14100192802D8203546F4006607
:100480004A462946204626604E46FFF7AFFE50B149
:10049000012805D0F61D26F0070000F1080971E7D4
:1004A00006F104096EE7284672E7206ABDE8F09F6E
:1004B000FA29010010B5431C02E010F8011B71B1CC
:1004C0008107FAD14FF0013202C88C1A8C4314EA2A
:1004D000C211F9D0C01A0A0603D0C01E10BDC01A3E
:1004E00010BD0A0401D0801E10BD0902FCD0401EC0
:1004F00010BD032A40F2308010F0030C00F015808C
:1005000011F8013BBCF1020F624498BF11F801CB16
:1005100000F8013B38BF11F8013BA2F1040298BF7B
:1005200000F801CB38BF00F8013B11F0030300F0E5
:100530002580083AC0F0088051F8043B083A51F889
:1005400004CBA0E80810F5E7121D5CBF51F8043B8E
:1005500040F8043BAFF30080D20724BF11F8013B01
:1005600011F801CB48BF11F8012B24BF00F8013B63
:1005700000F801CB48BF00F8012B704710B5203AB6
:10058000C0F00B80B1E81850203AA0E81850B1E84C
:100590001850A0E81850BFF4F5AF5FEA027C24BF02
:1005A000B1E81850A0E8185044BF18C918C0BDE8F9
:1005B00010405FEA827C24BF51F8043B40F8043BC2
:1005C00008BF7047D20728BF31F8023B48BF11F877
:1005D000012B28BF20F8023B48BF00F8012B7047D1
:1005E00070477047704770472DE9F0470D46044645
:1005F0009246994600F124080168880604D5E0690E
:1006000021F01001216000E001200027A84201DD57
:10061000A0EB0507A16907EB050202EB0300A1EBC4
:100620000000A0612068C00602D42046FFF73EFE0D
:10063000002608E0D4E901211AF806009047206A54
:10064000401C761C20624E45F4DB2068C0060AD5AB
:100650002046FFF72BFE06E0D4E901213020904729
:10066000206A401C2062381EA7F10107F4DC07E075
:10067000D4E9012118F805009047206A401C206247
:10068000281EA5F10105F3DC2046FFF725FE2168B1
:100690000220090600D40120BDE8F08770472DE94B
:1006A000FF4F0C461E464FF0FF3789B0D2E90001DC
:1006B000DDF8588006908946C1F30A5505B93D46D4
:1006C000002108464FF00000B9F1000F00F440008F
:1006D00005DA00EB80004FF4400101EA50004FEAD8
:1006E000905ABAF1010F00DDBA46069850EA490067
:1006F0002CD044F61050A5F2FF354543CAF1000056
:1007000008902F14B8F1000F39D07542089A291EAD
:1007100000DC524600DA694203A800F077FA069935
:10072000484600F05FFB8DE80700A0F500501F3839
:1007300000900398002D25DD42F21F015246084427
:1007400003A90390684600F0BEFD24E0B8F1010F54
:100750004FF0000001D1F24307E0302101E02154C5
:10076000401CB042FBDB3046002200212154099995
:10077000C1F80880C1E900200DB0BDE8F08FBD1BB5
:100780006D1CC3E7A0F5005052461F3803A9039023
:10079000684600F0ACFD8DE807000004000C03D0B3
:1007A0004FF0FF30410800E01046B8F1000F03D0D1
:1007B0000022009215461FE0751E06D400F0A2F933
:1007C00002F1300262556D1EF8D5B346012208438E
:1007D00002D000227F1C04E02078302801D10022C2
:1007E0007F1E002A07978DD01DE0112D07DA00F03B
:1007F00089F9303262556D1C50EA0102F5D1084387
:100800000FD10021681E05E0235C625C6354491C23
:100810002254401E8142F7DBAB46A81B401E0790C6
:1008200001E0009848B1002004F80B000998079AED
:10083000C0F80880C0E9002B9EE711264FF00008A1
:1008400060E72DE9F04F88460446D21D22F00701EB
:1008500091B0D1E90001CDE90C0106F0BBFD0246E3
:100860000D98C10F4FF02D0006D121682B208B076A
:1008700002D4202000EAC100032A834601D0072ABF
:1008800005DB03464146204600F082F90AE1206874
:10089000800601D5E76900E006271120B8F1650F51
:1008A00006D0B8F1660F11D0B8F1670F67D128E014
:1008B0000023112F009300DA781C03460CAA01A92B
:1008C00009A8FFF7ECFE00267D1C3FE001234FF056
:1008D00000490CAA01A909A800933B46FFF7DFFED7
:1008E000DDE90A50002620B9099907F1010001EB62
:1008F0000005781B02D47D1CC0F1FF36A5EB070A6A
:100900003DE0012F00DA01270023112F009300DCC6
:10091000384603460CAA01A909A8FFF7C0FE2068C3
:100920003D46002600070BD40A98A84200DA054687
:1009300001A8012D04DD411911F8011C302909D04D
:100940000998B84202DA10F1040F05DA4FF0010AF3
:10095000099813E06D1EECE7002802DC2D1A06440E
:1009600005E0401CA84202DD099D05F1010509983A
:10097000A0EB060000F1010A4FF00040814620681C
:10098000000703D4AA4501DB4FF0FF3A0020B9F17C
:10099000004F0DF13F078DF83F0024D04FF00208C3
:1009A0002B20B9F1000F00900BDA2D20C9F10009BE
:1009B000009006E0484600F096F83031814607F88E
:1009C000011DB8F10001A8F10108F3DCB9F1000F35
:1009D000F0D1009807F8010D21684520090500D4E1
:1009E000652007F8010D0EA8A0EB070000F107082D
:1009F0005FEA0B0000D0012000EB050101EBEA717A
:100A000001EB0800A169A1EB0000A0F10100A061C9
:100A10002068C00602D42046FFF748FC5FEA0B00BE
:100A200006D0D4E901219047206A00F1010020623C
:100A30002068C00621D52046FFF738FC1DE0002EB7
:100A400005DB0A98B04202DD01A8805D00E030209D
:100A5000D4E901219047206A761C401CBAF1010AB2
:100A600020620AD100F048F8C0680168405CD4E90F
:100A700001219047206A401C2062281EA5F1010533
:100A8000DDDC07E0D4E9012117F8010B9047206A6B
:100A9000401C2062B8F10001A8F10108F2DC2046F8
:100AA000FFF71AFC022011B067E6000001694A1C3A
:100AB00002610878704700B58FB0CDE9013100219F
:100AC000059105497944CDE9031011466846FFF7C1
:100AD0004FFC0FB000BD0000E5FFFFFF0A6802F801
:100AE000010B0A6070474FF00A01B0FBF1F202FB04
:100AF000110110467047000001487047704700BF61
:100B0000D057002030B5B0F10A024FEA900E71F1D3
:100B100000034EEA817EB0EB0E0061EB91014FEADB
:100B2000101E4EEA017E10EB0E0041EB11114FEA50
:100B3000102E4EEA016E10EB0E0041EB11214FEA30
:100B4000104E4EEA014E10EB0E0041EB11414018E1
:100B500041F100014FEAD00040EA41704FEAD10173
:100B600010EB80054FEA810444EA907444EB0104E1
:100B70006D1944EB0404521BA3414FF0000348BF1E
:100B80000A3200D530BD401C41F1000130BD0000EB
:100B90002DE9F04104461F4603260168072A01F4A7
:100BA000006003DB15A520B915A502E015A500B965
:100BB00015A521F010002060A069C01EA0610FB132
:100BC000401EA0612046FFF771FB4FB1D4E901211F
:100BD00038469047206A401C2062C01C206206E014
:100BE000206AFAE7D4E9012115F8010B9047761E37
:100BF000F8D22046FFF770FBBDE8F0814E414E0071
:100C00006E616E00494E4600696E66002DE9F04740
:100C1000814616468AB037487844D0E90023806878
:100C20000092CDE90130334878440C38D0E90223F2
:100C300000690392CDE9043041F69B334FF0370051
:100C400001EB0302194492FBF0F591FBF0F2A5F1E0
:100C5000800500FB12141B3C02D56442012000E019
:100C60000020DFF890A080460027FA44AAF1CE0ABF
:100C70000DE0E00709D03246684607EB47010AEB72
:100C8000810100F034FB8DE8070064107F1C002C0C
:100C9000EFD1184F7F44BC3F17E0E80713D007EBB4
:100CA00004100DF1180A90E80E00AAE80E00C068C2
:100CB000F04201D198190890324606A903A800F025
:100CC00016FB03AB07C36D10641C002DE5D1324643
:100CD0006946B8F1000F03A802D000F0F4FA01E071
:100CE00000F005FBC9E90001C9F808200AB0BDE819
:100CF000F08700001422010000487047B057002020
:100D00007546FFF7F9FFAE4605006946534620F0E9
:100D10000700854618B020B5FFF7A0FABDE82040CF
:100D20004FF000064FF000074FF000084FF0000BA7
:100D300021F00701AC46ACE8C009ACE8C009ACE85A
:100D4000C009ACE8C0098D4670470446AFF3008087
:100D50002046FFF76AFA00004FF0013C50F8042BE0
:100D600051F8043B9A4221D1A2EB0C03934313EABE
:100D7000CC1317D150F8042B51F8043B9A4215D1EB
:100D8000A2EB0C03934313EACC130BD150F8042BC2
:100D900051F8043B9A4209D1A2EB0C03934313EAA6
:100DA000CC13DBD04FF00000704700BFD01A01BA5F
:100DB000B1FA81F101F0180122FA01F0CB40C1F142
:100DC0002001DBB2C0B2C01A2CFA01F3D11A914350
:100DD00011EAC311E6D1704701487047704700BF60
:100DE000B45700205FEA400C08BF91F0000F4FEAB3
:100DF0008C234FEAC12243EA51514FEA1C5018BFDD
:100E000000F5F0404FEA300018BF41F000415FEAC2
:100E10006C5C00F02980BCF1FF3F08BF40F08040CF
:100E20007047130C06BF12044FF0100C4FF0000C6B
:100E3000130E04BF12020CF1080C130F04BF1201B1
:100E40000CF1040C930F04BF92000CF1020CD30FB1
:100E500004BF52000CF1010C11464FF00002A0F14A
:100E60001F00A0EB0C00704711F0004F08BF704747
:100E700031F000413FF4D5AF0B0C06BF09044FF031
:100E8000100C4FF0000C0B0E04BF09020CF1080C03
:100E90000B0F04BF09010CF1040C8B0F04BF890078
:100EA0000CF1020CCB0F04BF49000CF1010CCCF18A
:100EB0002003A0EB0C0022FA03F302FA0CF241EA41
:100EC000030100F10100704720F07F4C80EA03002D
:100ED00023F07F47ACEB070303F57C5300F00040A1
:100EE00003F1FF032DE980494FEA154B09B44FEA9E
:100EF000144325EA0B4E24EA03480FF2042606EBBE
:100F0000132749083E785FEA320203FB0667C7F5FC
:100F1000000707FB06F64FEA54374FEAD64606F1BC
:100F2000020607FB066CCCF1005C4FEA1C472CEA7A
:100F3000074C07FB06F40CFB06F504EB15464FEADD
:100F4000961634BF00204FF000404FEAD13706FB21
:100F500007FC4FEA1C4C0CFB0BF7D21B03FB0CF7F6
:100F600061EB07010CFB0EF7B0EB074072EB174289
:100F70000CFB08F734BFA2EB0742B2EB074261EB70
:100F800017414FEA0C444FEA910706FB07FC4FEA72
:100F90001C4C0CFB0BF7B0EBC74072EB573203FB5A
:100FA0000CF734BFA2EBC742B2EBC74261EB57313B
:100FB0000CFB0EF7B0EBC70072EB57720CFB08F797
:100FC00034BFA2EBC702B2EBC70261EB5771039FBC
:100FD0004FEA816141EA921104EBCC044FEAD13728
:100FE0004FEA826206FB07FC42EA90124FEA8060F9
:100FF0004FEA1C4C0CFB0BF7D21B03FB0CF761EB0D
:1010000007010CFB0EF7B0EB074072EB17420CFB2D
:1010100008F734BFA2EB0742B2EB074261EB17417E
:101020004FEA8C554FEA910704EB9C2406FB07FC22
:101030004FEA1C4C0CFB0BF7B0EBC74072EB57327E
:1010400003FB0CF734BFA2EBC742B2EBC74261EB24
:1010500057310CFB0EF7B0EBC70072EB57720CFB6D
:1010600008F734BFA2EBC702B2EBC70261EB5771BE
:1010700015EB4C254FEA816141EA92114FEA8262F9
:101080004FEAD13742EA901206FB07FC44F1000414
:101090004FEA80604FEA1C4C0CFB0BF7D21B03FBA2
:1010A0000CF761EB07010CFB0EF7B0EB074072EB9E
:1010B00017420CFB08F734BFA2EB0742B2EB074222
:1010C00061EB174115EB1C154FEA813141EA924162
:1010D0004FEA823242EA90424FEA80304FEA0C7681
:1010E00044F1000448EA03434EEA0B484FF0000E77
:1010F000B2EB080C71EB030724BF624639464EEB96
:101100000E0E4FF0000B0018524149414BEB0B0BF8
:10111000B2EB080C71EB03077BF1000B24BF6246B6
:1011200039464EEB0E0E4FF0000B0018524149416C
:101130004BEB0B0BB2EB080C71EB03077BF1000BD5
:1011400024BF624639464EEB0E0E51EA020718BF25
:1011500046F0010616EB0E7655F1000254F100013F
:1011600003D5BDE88901BDE80088BDE88901BDE877
:101170000048B619524141EB0101A3F10103704748
:1011800080807F7E7D7C7B7A7978777676757473C4
:10119000727171706F6E6E6D6C6C6B6A6A69686883
:1011A000676666656464636362616160605F5F5E19
:1011B0005E5D5D5C5C5B5B5A5A595958585757568F
:1011C00056555555545453535252525151505050F4
:1011D0004F4F4F4E4E4D4D4D4C4C4C4B4B4B4A4A46
:1011E0004A4949494848484747474746464645458A
:1011F00045444444444343434342424242414141C3
:10120000002B26D4770021D01CB54FEA370703B452
:101210004FF010004FF010014FF000000FBCBDE880
:1012200010400BF1010BBBF1010F08BF5FEA17077C
:1012300022BF12F1010211F101014FF0004143F10F
:10124000000300F0004043EA00007047F9D357085C
:10125000DAE746EA064613F1400F4FEA16461FDD6D
:1012600013F1200FDFBF16430A46002120335B42F3
:10127000C8D0C3F1200746EA064602FA07F74FEA4C
:10128000164646EA0706C3F1200722FA03F201FADE
:1012900007F721FA03F14FF0000342EA0702B1E732
:1012A00046EA020646EA06464FEA164646EA0106BE
:1012B000BCBF46EA0646360C4FF000034FF0000272
:1012C0004FF000019EE72DE9C048934630B491E805
:1012D000380007C831EA400C48BF34EA430C03D554
:1012E000FFF7F2FDFFF78CFFF0BCBDE800882DE9A9
:1012F000C048934630B491E8380007C810F0804FDA
:1013000008BF13F0804F03D100F005F8FFF778FF16
:10131000F0BCBDE8008820F07F4780EA030023F09E
:101320007F4C07EB0C03A3F57C5300F00040A3F1C6
:10133000FE0392F0000F00F0B38095F0000F00F074
:1013400077802DE901494FEA11404FEA144621EA1E
:10135000004800FB06FC24EA064708FB06F607FBEC
:1013600008F800FB07F718EB06484CEB164C4FEA61
:10137000124B18EB07484FEA15464CEB174022EA90
:101380000B4E0BFB06FC25EA06470EFB06F607FB99
:101390000EFE0BFB07F71EEB064E4CEB164C4FF008
:1013A00000061EEB074E4CEB174B18EB0B0840F1F9
:1013B000000018EB0E0B58EB000840F100008F1AEC
:1013C0004FF000013CBFC943661B14BFB5EB040CD2
:1013D00000213CBFC943F61B4FEA17444EEA8E0E6C
:1013E00027EA04454FEA1C4704FB07622CEA074C36
:1013F00005FB07F70CFB05F604FB0CFC16EB074698
:1014000042EB174216EB0C4642EB1C421BEB060666
:1014100058EB0202414146EA9E0601D5BDE801892A
:10142000B619524141EB0101A3F10103BDE8018965
:101430004FEA14454FEA114724EA054621EA074CD2
:1014400005FB07F406FB07F70CFB06F105FB0CFC9C
:1014500011EB074144EB17444FEA124711EB0C41E3
:1014600044EB1C4422EA074C05FB07F206FB07F796
:101470000CFB06F605FB0CFC16EB074642EB17428D
:1014800016EB0C4642EB1C456A1854F1000148BFAC
:101490007047B619524141EB0101A3F101037047B6
:1014A00095F0000F37D04FEA11424FEA144721EA76
:1014B000024624EA074C02FB07F106FB07F70CFB88
:1014C00006F402FB0CFC14EB074441EB17414FEA16
:1014D000154714EB0C4441EB1C4125EA074C02FB79
:1014E00007F506FB07F70CFB06F602FB0CFC16EBF8
:1014F000074645EB174516EB0C4645EB1C42121907
:1015000051F1000148BF7047B619524141EB01014A
:10151000A3F1010370474FEA14454FEA114724EA4B
:10152000054621EA074C05FB07F106FB07F70CFB14
:1015300006F24FF0000605FB0CFC12EB074241EBF4
:10154000174112EB0C4251EB1C4148BF70479218F7
:1015500041EB0101A3F1010370470000034800685B
:1015600020F002000249C1F8000470470024014045
:101570000020014008B50121084603F017F90121B8
:1015800040F2112003F032F90120ADF800000020F4
:101590008DF803006946074801F085F90220ADF88F
:1015A000000000208DF803006946024801F07BF935
:1015B00008BD00000010014010B5FFF7DBFF00F090
:1015C00001F810BD00B591B0454800F08BFB4548CF
:1015D00006904548079000200890062009900020BA
:1015E0000A9080200B9040000C9080000D902020ED
:1015F0000E9000020F900020109006A9384800F0CD
:101600002FFC0121364800F061FB002001900120F1
:101610008DF8080000208DF809004FF46020039039
:101620000020049006208DF8140001A92D484C38A4
:1016300000F014F94FF4404003F0ACF801231A46CF
:101640000A2128484C3800F08BFA012302220B2192
:1016500024484C3800F084FA012303220C2121484D
:101660004C3800F07DFA012304220D211D484C382E
:1016700000F076FA012305220E211A484C3800F0BA
:101680006FFA012306220F2116484C3800F068FA41
:10169000012114484C3800F034F8012111484C382D
:1016A00000F024F80F484C3800F0B6FA00BF0D489F
:1016B0004C3800F0C9F80028F9D10A484C3800F03D
:1016C000BBFA00BF07484C3800F0B4F80028F9D145
:1016D000012104484C3800F0A4FA11B000BD00000C
:1016E000080002404C2401400E36002021B18268DF
:1016F00042F00102826003E0826822F0010282600F
:10170000704721B1826842F48072826003E082688F
:1017100022F4807282607047F0B50022002300241A
:101720000D882DB23B4E358035462D880580C82268
:101730000BE0551E374E36F8155026F81250354638
:1017400035F912502C44551EAAB2002AF1DCC825E6
:10175000B4FBF5F425B20580801C891C40F28F1281
:101760000BE0551E2C4E36F8155026F81250354613
:1017700035F912502B44551EAAB2002AF1DC274D30
:101780002D78A5B1264D2E782D786D1C244F3D70F7
:101790000A2E04DA204D2D881F4E35800BE00D886F
:1017A0002DB21D4E358000251C4E357003E00D888E
:1017B0002DB2194E3580184DB5F900502B444FF419
:1017C000C875B3FBF5F31DB20580801C891C0D881C
:1017D0002DB2144E358035462D880580801C891C1D
:1017E0000D882DB2104E358035462D880580801C21
:1017F000891C0D882DB20D4E358035462D8805800B
:10180000801C891C0D882DB2094E358035462D88E7
:101810000580F0BD3C2600209C160020CC0700204F
:10182000EE050020CC2700205C290020EC2A0020B7
:101830007C2C0020014600208A6812F0040F01D0A1
:10184000012000E000207047014600208A6812F065
:10185000080F01D0012000E00020704730B502469B
:10186000002000235068104C20400D790C6844EA99
:1018700005244D7C2C432043506090680B4C204045
:10188000D1E902542C434D7944EA45042043906049
:10189000D06A20F470000C7C641EE4B2234340EA5A
:1018A0000350D06230BD0000FFFEF0FFFDF7F1FFF6
:1018B00070B5022000F0BEFA01287DD1914992480E
:1018C000FFF72AFF9048008890490880642407E0C9
:1018D000601E8F4931F8100021F81400601E84B298
:1018E000002CF5DC884840888949088089480078C0
:1018F000401C884908700846007864287EDB642014
:101900000870002084490860002409E0804830F90C
:1019100014008149096808447F490860601C84B24A
:10192000642CF3DB7C4800686421B0FBF1F07A4959
:101930000860096841F6C812514340F6FF72B1FBD6
:10194000F2F1764A108800EBD072521002EB51018E
:10195000724A118010460088642875DD10460088A0
:101960006F490988884211DB104600886C49098854
:10197000401A6C49097848436B49097848434FF449
:101980007A7190FBF1F0694908802CE06848007892
:1019900048BB62480088642825DB6048008800EB6B
:1019A0008000642190FBF1F05D490988C1EB411290
:1019B00002EB8111642200E0A3E091FBF2F1084404
:1019C000574908805B4802785B495C48006805F02D
:1019D0006DFD5348008858490860564802785748BA
:1019E000006805F07CFD514800885549554A127839
:1019F00021F8120053480078012800E07EE011D160
:101A0000084640880988884206DB01204E49087054
:101A100000204E49087005E001204C490870002064
:101A2000494908704848007878B1454845490978DF
:101A300030F8110042490988884217DA00204249EB
:101A400008704049087011E055E04048007868B1DE
:101A50003B483C49097830F81100394909888842E7
:101A600004DD00203949087036490870354801788E
:101A70000078401C334A1070042915DB0020114601
:101A800008702F4800882E49498808442C498988C5
:101A900008442B49C9880844294909890844052173
:101AA00090FBF1F02A490880294B1A8802EBD27387
:101AB000591001EBD1735B10264D288800EBD075CF
:101AC00003EB6503234D2B8028460088052802DCA4
:101AD0000520294608801F480088B0F5487F03DDAF
:101AE0004FF448701B49088001201B4908700020F2
:101AF0001A49087002E0072018490870022000F017
:101B0000D7F870BD0E360020901600201A0600206F
:101B10000C2E0020F20500201406002018060020DC
:101B2000E4050020ED050020EC0500201E06002045
:101B30006307002008070020383600202406002014
:101B400004360020F1050020EF050020F0050020FC
:101B5000220600202006002072070020E805002051
:101B6000F0B504460D4600200021092D11DDE06886
:101B7000A5F10A0606EB4607072606FA07F1884391
:101B8000A5F10A0606EB460603FA06F10843E060F3
:101B90000CE0206905EB4507072606FA07F18843A4
:101BA00005EB450603FA06F108432061072A0FDA20
:101BB000606B561E06EB86071F2606FA07F1884360
:101BC000561E06EB860605FA06F10843606322E01E
:101BD0000D2A0FDA206BD61F06EB86071F2606FAA2
:101BE00007F18843D61F06EB860605FA06F108437F
:101BF000206310E0E06AA2F10D0606EB86071F26BF
:101C000006FA07F18843A2F10D0606EB860605FAEF
:101C100006F10843E062F0BD816841F0080181608F
:101C2000704721B1826842F4A002826003E08268BA
:101C300022F4A00282607047816841F00401816053
:101C4000704710B5012002F0E1FD002002F0DEFD3A
:101C500010BD000001460022014A0A441088704766
:101C6000006C00400022024A0244116070470000EC
:101C7000006C004000BFFEE770B502460B46FF2433
:101C8000FF2509E012F8010B80EA04010648405CD8
:101C900080EA05040548455C1800A3F10106F3B28B
:101CA000F0D145EA042070BDD4070020D4080020FC
:101CB00010F0805F02D00349086001E002494860EB
:101CC00070470000040402400000024021B1026895
:101CD00042F00102026004E002684FF6FE731A400F
:101CE0000260704701684FF6FE72114001600021EA
:101CF000016041608160C1604A49884208D1494918
:101D00000839496841F00F01464A083A516088E0B5
:101D100044491431884208D142490839496841F0A0
:101D2000F001404A083A51607BE03E492831884240
:101D300008D13C490839496841F47061394A083A88
:101D400051606EE037493C31884208D13549083945
:101D5000496841F47041334A083A516061E03149C1
:101D60005031884208D12F490839496841F470211F
:101D70002C4A083A516054E02A496431884208D11B
:101D800028490839496841F47001264A083A5160E7
:101D900047E024497831884208D122490839496806
:101DA00041F070611F4A083A51603AE01E4988428A
:101DB00008D1A0F10401096841F00F011B4AC2F8E3
:101DC00004142EE018491431884207D118490968D3
:101DD00041F0F001154AC2F8041422E012492831FA
:101DE000884207D11249096841F470610F4AC2F86C
:101DF000041416E00C493C31884207D10C490968AB
:101E000041F47041094AC2F804140AE0064950310D
:101E1000884206D10649096841F47021034AC2F894
:101E20000414704708000240080402400000024009
:101E30000404024001460020002211F0805F02D01D
:101E4000054B1A6801E0054B1A680A4201D00120CF
:101E500000E0002070470000000402400000024043
:101E600010B50022026847F6F0739A430C6A8B683B
:101E700023430C6923434C6923438C692343CC6976
:101E800023434C6A23438C6A23431A430260CB6882
:101E900043600B6883604B68C36010BD704710B52A
:101EA0000446012C02D0022C06D102E002F006FC0E
:101EB00003E002F09DFB00E000BF00BF10BD00008A
:101EC00070B504460D4601F06BF8052005F0D0FA18
:101ED000132000F0A9FF192005F0CAFA01F022FA38
:101EE00020B907200F490870022070BD11E01420AE
:101EF00005F0BEFA00F0F0FE04F8010B142005F026
:101F0000B7FA1DB1012000F0FFFD02E0002000F053
:101F1000FBFD2800A5F10101CDB2E8D101F01CF9CB
:101F20000020E2E7D509002010B507216448FFF73B
:101F3000C7FF634800780B2857D1614840790B28C8
:101F400053D15F4800795E49C97800EB01205D49B3
:101F5000088009885C4A1288881800EBD0714FF419
:101F6000FA7202EB6101594AB2F9002091420FDD89
:101F700054490988544A1288881800EBD0714910D6
:101F800001F5FA71514A1288891A4F4A118015E0F9
:101F90004C48008800F5FA704C49B1F900108842AD
:101FA00009DD4848008800F5FA7048490988401A58
:101FB0004549088002E000204349088042480088E3
:101FC000002802DC0020404908803F480088B0F526
:101FD0007A7F03DD4FF47A703B49088000203C494A
:101FE000087001203B49087069E0354840780B28AB
:101FF00057D1334880790B2853D131484079304943
:10200000097900EB01202F49088009882E4A12889F
:10201000881800EBD0714FF4FA7202EB61012B4A81
:10202000B2F9002091420FDD26490988264A12881C
:10203000881800EBD071491001F5FA71234A128813
:10204000891A214A118015E01E48008800F5FA70AF
:102050001E49B1F90010884209DD1A48008800F5D0
:10206000FA701A490988401A1749088002E00020CE
:102070001549088014480088002802DC0020124915
:10208000088011480088B0F57A7F03DD4FF47A703C
:102090000D49088000200E49087001200D49087084
:1020A0000DE00748007838B9054840781F2803D16B
:1020B00000200749087002E007200549087010BD9C
:1020C000513F0020D80900206E0200203A02002073
:1020D000D50900207507002070B504460D4600F0B4
:1020E0005FFF052005F0C4F9112000F09DFE1920C6
:1020F00005F0BEF901F016F920B907200E49087065
:10210000022070BD0EE000F0E7FD04F8010B09208D
:1021100005F0AEF91DB1012000F0F6FC02E0002050
:1021200000F0F2FC2800A5F10101CDB2EBD101F0E5
:1021300013F80020E5E70000D40900202DE9F0475E
:102140000721AC48FFF7C8FFAA4800780B287CD1CC
:10215000A84840790B2878D1A6480079002874DD7A
:10216000A4480079A349C97800EB0124204609F06E
:102170003FF8A1490860A148B0F9000009F020F833
:1021800007469F499F48006809F07AF880469A48B8
:102190000168404608F074FE06469B4908F070FE50
:1021A0000546394609F03FF91FD29448B0F90000BE
:1021B00009F006F8804692499248006809F060F8F4
:1021C00081468D480168484608F05AFE07468E4908
:1021D00008F056FE0646414609F056F905468A497A
:1021E00008F0BCFE8749086033E08448B0F900007D
:1021F00008F0E6FF0646804801684FF0804009F08D
:102200003FF80746804908F03BFE0546314609F095
:102210000AF91BD27948B0F9000008F0D1FF07464F
:10222000754801684FF0804009F02AF880467649E9
:1022300008F026FE0646394609F026F90546724999
:1022400008F08CFE6F49086003E01BE000206D4938
:1022500008606E496B48006809F0E5F802D26B48E7
:102260006849086000216748006808F0D5FF02D877
:102270000020644908600120654908700020654914
:102280000870B4E05B4840780B287CD159488079CD
:102290000B2878D157484079002874DD554840799B
:1022A0005449097900EB0124204608F0A1FF524966
:1022B00008605248B0F9000008F082FF0746504914
:1022C0005048006808F0DCFF80464B4801684046F3
:1022D00008F0D6FD06464C4908F0D2FD05463946C1
:1022E00009F0A1F81FD24548B0F9000008F068FFD6
:1022F000804643494348006808F0C2FF81463E4893
:102300000168484608F0BCFD07463F4908F0B8FDA3
:102310000646414609F0B8F805463B4908F01EFE5E
:102320003849086033E03548B0F9000008F048FF4C
:102330000646314801684FF0804008F0A1FF07468B
:10234000314908F09DFD0546314609F06CF81BD275
:102350002A48B0F9000008F033FF07462648016814
:102360004FF0804008F08CFF8046274908F088FD38
:102370000646394609F088F80546234908F0EEFD7F
:102380002049086003E01BE000201E4908601F4947
:102390001C48006809F047F802D21C481949086037
:1023A00000211848006808F037FF02D800201549BE
:1023B000086000201749087001201549087016E0D0
:1023C0000C4800780B2803D10A4840790B2807D025
:1023D000084840780B2807D1064880790B2803D19C
:1023E00000200C49087002E007200A490870BDE887
:1023F000F0870000603F0020DC0900206C0700200F
:102400000000C842B80700200000484300007A449A
:1024100073070020D40900201CB5BC48BC490A68D9
:1024200002604A68426009890181BA480278BA4963
:10243000BA48006805F03AF8B74800680004000C94
:102440000AD0B548006880B2B0F5805F04D2B248C7
:102450000068B349088003E040F6FF70B049088087
:10246000AD48006C0004000C0CD0AB48006C80B28E
:1024700044F62061884205D2A748006C00B2A94901
:10248000088003E042F21070A6490880A248406C20
:1024900080B2322809D3A048406C80B2C82804D842
:1024A0009D48406CA049088002E064209E49088055
:1024B0009948806C0004000C09D09748806C80B269
:1024C000C82804D29448806C9849088002E06420AF
:1024D000964908809048C06C0004000C0BD08E48D0
:1024E000C06C80B2B0F57A7F05D28B48C06C00B268
:1024F0008F49088003E04FF4FA708D4908808648C0
:10250000006D0004000C0AD08348006D80B2B0F565
:10251000C87F04D28048006D8649088002E0C82048
:10252000844908807C488068834908800846008880
:10253000052804DB08460088B0F5616F03DD4FF421
:1025400096707D4908807448C06810F0FF0F2DD048
:102550007148C068C0B2FF2828D06F48C06877496A
:1025600008706D48006948706B48406988706A4817
:102570008069C8706848C06908716748006A487116
:102580006548406A88716448806AC8716248C06A58
:1025900008726148006B48725F48406B88725E4801
:1025A000806BC8725C48C06B087317E002206349F7
:1025B00008700120487088701420C87010200871BD
:1025C000032048711C2088710020C8710120087206
:1025D0001020487288720020C87208730B220021F4
:1025E000574802F0DDFC5648807AAA2840D00020E7
:1025F000544908600846006800EBC000400052499A
:10260000086040F6FF7051490860514908604D4824
:102610000068000E4A4908704A480068000C48707B
:1026200048480068000A887046480068C8704748F3
:102630000068000C087145480068000A487143486A
:102640000068887142480068000CC8714048006802
:10265000000A08723E4800684872AA2088720B225D
:102660000021374802F0EAFC00203A49087021E0D6
:10267000012038490870324800784FF07F4101EA64
:1026800000602F4949784FF47F0202EA0141084473
:102690002B498978121202EA012101442848C078A6
:1026A0000844284908600846006800EBC000400064
:1026B000254908601848406E80B2252824D1134867
:1026C0008088B0F5FA6F10D11048807901280CD1BC
:1026D000012300931A4619464FF4FC60019302F05F
:1026E000FDFA01201C49087002E000201A49087018
:1026F00001201A49087000200749486605480278F9
:102700000648006804F0EBFE1CBD00004A370020BC
:102710001837002008070020383600202406002043
:10272000E4050020380200206E070020700700201A
:102730003A0200206C07002038070020C60A00205B
:10274000423F00204C070020500700205407002083
:1027500058070020460200204702002048020020BF
:102760000149C860704700000020024030B50446AF
:1027700004254FF4302000F083F80546042D17D1CE
:102780000C48006940F002000A49086108464461AB
:10279000006940F0400008614FF4302000F070F80C
:1027A00005460448006941F6FD7108400149086189
:1027B000284630BD0020024004200C49C96801F0C1
:1027C0000101012901D101200EE00849C96811F079
:1027D000040F01D0022007E00449C96811F0100F6E
:1027E00001D0032000E004207047000000200240D8
:1027F0000348006940F0800001490861704700000B
:1028000000200240F0B504460D4604260027F002E1
:1028100000F036F80646042E22D11248006940F036
:102820000100104908612580F00200F029F80646F1
:10283000042E0ED1A71C280C3880F00200F020F8DE
:1028400006460848006941F6FE71084005490861DE
:1028500006E00448006941F6FE710840014908613C
:102860003046F0BD0020024002480349486003485A
:10287000486070472301674500200240AB89EFCDD7
:1028800000B502460423FFF797FF034603E0FFF776
:1028900093FF0346521E012B01D1002AF7D102B942
:1028A0000523184600BD2DE9F0410246002500260B
:1028B000002000230024002791F803C00CF00F052E
:1028C00091F803C01CF0100F03D091F802C04CEA3D
:1028D0000505B1F800C01CF0FF0F31D014680020CE
:1028E0002BE04FF0010C0CFA00F3B1F800C00CEA39
:1028F00003069E4220D183004FF00F0C0CFA03F721
:10290000BC4305FA03FC4CEA040491F803C0BCF193
:10291000280F06D14FF0010C0CFA00FCC2F814C0CD
:102920000AE091F803C0BCF1480F05D14FF0010C4B
:102930000CFA00FCC2F810C0401C0828D1D3146067
:10294000B1F800C0BCF1FF0F34DD546800202EE068
:1029500000F1080C4FF0010808FA0CF3B1F800C0C0
:102960000CEA03069E4221D183004FF00F0C0CFAB3
:1029700003F7BC4305FA03FC4CEA040491F803C0D6
:10298000BCF1280F05D100F1080C08FA0CF8C2F8C8
:10299000148091F803C0BCF1480F07D100F1080C76
:1029A0004FF0010808FA0CF8C2F81080401C082803
:1029B000CED35460BDE8F08141617047016170473A
:1029C00010B5092000F04AF800F0ECFF10BD00003F
:1029D00000B501200E4908600E49C1F8A4010E4956
:1029E00008604FF0000000F039F8202000F036F8C1
:1029F000182000F033F8012000F030F8AE2000F08D
:102A00002DF8082000F02AF8032000F027F800BD78
:102A10009C01224200002242A001214210B5002266
:102A200014E000230B4C236010F0800F03D001232F
:102A3000094C236002E00023074C23604306180E74
:102A40000123044C236002F10103DAB28A42E8DB7D
:102A500010BD0000A4012242A001214210B504468D
:102A60000020084908604FF003014FF08000FFF795
:102A7000D5FF09212046FFF7D1FF01200249C1F807
:102A80009C0110BD9C01224200002242F0B5044688
:102A90000D46164600200D4908604FF003014FF027
:102AA000A000FFF7BBFF6106080E0721FFF7B6FF86
:102AB000002705E008212846FFF7B0FF781CC7B2C1
:102AC000B742F7DB012001490860F0BD9C012242BA
:102AD00000BFFEE7302805DB392803DCA0F1300118
:102AE000C8B210E0412805DB462803DCA0F137011D
:102AF000C8B208E0612805DB662803DCA0F15701B5
:102B0000C8B200E0FF20704710B504461CB1802019
:102B10000B49086002E080200A490860022004F0A6
:102B2000A7FC4020074908604FF0070004F0A0FC14
:102B300040200549C1F81408022004F099FC10BD9A
:102B400014080140100801400000014010B504467F
:102B50001CB180200B49086002E080200A4908600F
:102B6000022004F085FC4020074908604FF0070070
:102B700004F07EFC40200549C1F81408022004F04E
:102B800077FC10BD1408014010080140000001400E
:102B900008B50121202001F029FE4FF40050ADF8C6
:102BA000000014208DF8030003208DF80200694610
:102BB0000848FFF778FE4FF48040ADF8000014207D
:102BC0008DF8030003208DF8020069460148FFF7E5
:102BD0006AFE08BD0014014008B50121202001F063
:102BE00005FE4FF40040ADF8000014208DF80300FE
:102BF00003208DF8020069460A48FFF754FE0121C0
:102C0000102001F0F3FD4020ADF8000014208DF8F5
:102C1000030003208DF8020069460348FFF743FED6
:102C200008BD0000001401400010014070B50825E7
:102C3000002400F0B5F815E06006040E4FF40050D3
:102C40000E49086000F0CAFB4FF400500C49C1F86F
:102C5000100400F0C3FB0B48006810F4804F01D053
:102C600044F001042800A5F10101CDB2E4D14FF4F4
:102C7000005002490860204670BD00001414014055
:102C8000001001400814014070B50825002400F030
:102C900097F812E06006040E40200D49486100F0EC
:102CA0009DFB40200A49086100F098FB0948006834
:102CB00010F4004F01D044F001042800A5F10101F7
:102CC000CDB2E7D1402002494861204670BD0000E6
:102CD000001001400814014070B500258020134900
:102CE00008604FF040001249C1F814084FF080040A
:102CF00018E040200D4908604FF0070004F0B8FBD1
:102D00000B48D0F8080810F0800F00D02543402071
:102D1000084908604FF0070004F0AAFB204604EBC6
:102D2000D4714C10002CE4D1284670BD100801402D
:102D3000000001401408014070B5002580201549AD
:102D400008604FF040001449C1F814084FF0020029
:102D500004F08EFB802418E040200E4908604FF0FC
:102D6000070004F085FB0C48D0F8080810F0800F2D
:102D700000D025434020094908604FF0070004F0C7
:102D800077FB204604EBD4714C10002CE4D128468C
:102D900070BD00001008014000000140140801400F
:102DA00008B54FF48040ADF8000004208DF8030012
:102DB00069460248FFF777FD08BD00000014014096
:102DC00008B54FF40040ADF8000004208DF8030072
:102DD00069460248FFF767FD08BD00000014014086
:102DE00008B54FF48040ADF8000014208DF80300C2
:102DF00003208DF8020069460148FFF754FD08BD25
:102E00000014014008B54FF40040ADF80000142054
:102E10008DF8030003208DF8020069460148FFF792
:102E200042FD08BD0014014070B50546402013491D
:102E300008604FF0020004F01BFB80241AE02C42D3
:102E400003D080200E49086002E080200B49086012
:102E5000072004F00DFB4020094908604FF00700EF
:102E600004F006FB40200749C1F81408204604EB93
:102E7000D4714C10002CE2D170BD00001408014048
:102E8000100801400000014070B50546402013497C
:102E900008604FF0020004F0EBFA80241AE02C42A4
:102EA00003D080200E49086002E080200B490860B2
:102EB000072004F0DDFA4020094908604FF00700C0
:102EC00004F0D6FA40200749C1F81408204604EB64
:102ED000D4714C10002CE2D170BD000014080140E8
:102EE000100801400000014070B5044608251BE0B1
:102EF0004FF400501149086000F070FA14F0800F90
:102F000004D04FF480400E49086003E04FF4804045
:102F10000A4908606006040E00F060FA4FF40050A1
:102F20000749086000F05AFA2800A5F10101CDB266
:102F3000DED14FF400500149086070BD1414014007
:102F40001014014070B50446082519E040201149CD
:102F5000486100F043FA14F0800F04D04FF40040B1
:102F60000D49086003E04FF400400C49086060061A
:102F7000040E00F033FA40200649086100F02EFAF2
:102F80002800A5F10101CDB2E0D1402001494861FE
:102F900070BD0000001001401014014014140140E5
:102FA00010B58020144908604FF040001349C1F863
:102FB00010084FF0050004F05BFA1148006808B9EA
:102FC000012000E0002010F0800F01D0012010BD92
:102FD00080200C4908604FF0050004F049FA4020B9
:102FE0000649C1F814080648006810F0800F01D0A7
:102FF0000220ECE70020EAE7100801400000014051
:10300000080801401408014010B5802014490860E8
:103010004FF040001349C1F810084FF0050004F0CC
:1030200027FA1148006808B9012000E0002010F0DC
:10303000800F01D0012010BD80200C4908604FF0A6
:10304000050004F015FA40200649C1F814080648A6
:10305000006810F0800F01D00220ECE70020EAE7C2
:103060001008014000000140080801401408014018
:1030700010B5FFF7B5FE4FF48040174908604FF4D4
:1030800000501649C1F8100400F0A8F9144800686F
:1030900008B9012000E0002010F4804F01D000208A
:1030A00010BD4FF480400F49086000F097F90B48BD
:1030B000D0F8080410F4804F01D00020F0E74FF45E
:1030C00080400849086000F089F94FF40050034936
:1030D000C1F814040120E3E710140140001001407E
:1030E000081401401414014010B5FFF78BFE4FF493
:1030F0000040164908604FF040001549086100F093
:103100006DF91348D0F8080408B9012000E0002048
:1031100010F4004F01D0002010BD4FF400400D49C5
:10312000086000F05BF90A48D0F8080410F4004F7A
:1031300001D00020F0E74FF400400649086000F09D
:103140004DF94020024948610120E5E71014014093
:10315000001001401414014010B580200A49086095
:103160004FF0050004F084F940200849C1F8100828
:10317000052004F07DF98020054908604FF0050026
:1031800004F076F910BD0000140801400000014071
:103190001008014010B580200A4908604FF009006E
:1031A00004F066F940200849C1F81008092004F02D
:1031B0005FF98020054908604FF0090004F058F9D4
:1031C00010BD00001408014000000140100801403B
:1031D00010B5FFF705FE4FF400500C49086000F0F1
:1031E000FDF84FF480400A49C1F8140400F0F6F8E5
:1031F0004FF400500749086000F0F0F84FF48040A9
:103200000349C1F8100400F0E9F810BD141401409E
:10321000001001401014014010B5FFF7F3FD4020ED
:103220000B49486100F0DAF84FF4004009490860A2
:1032300000F0D4F840200649086100F0CFF84FF4C0
:1032400000400349C1F8100400F0C8F810BD0000A8
:10325000001001401414014010B5FFF7A1FD4FF418
:1032600000501549086000F0B9F84FF48040134948
:10327000C1F8100400F0B2F84FF400501049086093
:1032800000F0ACF80D48D0F8080410F4804F09D0D5
:103290004FF4005008490860FFF7A2FD00F09EF8C7
:1032A000002010BD4FF4005003490860FFF798FD5F
:1032B00000F094F80120F4E71414014000100140DC
:1032C0001014014010B5FFF77BFD40201349486101
:1032D00000F084F84FF400401149086000F07EF8D7
:1032E00040200E49086100F079F80C48D0F8080435
:1032F00010F4004F08D0402008494861FFF782FDD4
:1033000000F06CF8002010BD402004494861FFF730
:1033100079FD00F063F80120F5E70000001001409E
:103320001014014010B500248020104908604FF0AF
:10333000020004F09DF840200D49C1F81008072054
:1033400004F096F807E0601CC4B2FA2C03DDFFF726
:1033500003FF002010BD0748006810F0800FF2D175
:103360004020054908604FF00100F3E710080140D4
:1033700000000140080801401408014010B5002475
:103380008020124908604FF0020004F071F84020DC
:103390000F49C1F81008072004F06AF807E0601C24
:1033A000C4B2FA2C03DDFFF7F5FE002010BD09487A
:1033B000006810F0800FF2D14020074908604FF0FC
:1033C000020004F055F80120F0E700001008014069
:1033D00000000140080801401408014010B5022017
:1033E00004F046F810BD000008B50121042001F0EA
:1033F000FDF9C020ADF8000002208DF80200142075
:103400008DF8030069460248FFF74DFA08BD000039
:103410000008014010B53C480079022868D13A48BC
:103420004079012864D138488079012860D1374833
:10343000027837493748006804F038F83248007994
:103440003349C8603048407908612F488079486125
:103450002D48C07988612C48007AC8612A48407A92
:1034600008622948807A48622748C07A88622648DC
:10347000007BC8622448407B08632348807B486304
:103480002148C07B88632048007CC8631F480278BD
:103490002048006804F023F81B4800791E49087092
:1034A0001948407948701848807988701648C07962
:1034B000C8701548007A08711348407A487112485C
:1034C000807A88711048C07AC8710F48007B0872F2
:1034D0000D48407B48720C48807B88720A48C07B4C
:1034E000C8720948007C087301200C49087002E08A
:1034F00000200A4908700D220749012005F008F84C
:1035000001200749087010BDE813002008070020BB
:103510003836002024060020C60A0020770200204A
:103520007802002000B545F2555000F029F8062039
:1035300000F01AF84FF47A6000F01CF800F00CF874
:1035400000F002F800BD00004CF6CC4001490860D4
:1035500070470000003000404AF6AA200149086088
:10356000704700000030004001494860704700008B
:103570000030004001498860704700000030004082
:1035800001490860704700000030004010B5042079
:10359000114908700C204870042088700020C87001
:1035A0001020087100204871142088714C20C871C7
:1035B00000240DE000BF4021084803F083FD0028EF
:1035C000F9D00548015D054803F049FE601CC4B20E
:1035D000082CEFDB10BD0000EA0A00200038014093
:1035E0000146CA1701EB92729210B1EB820212D11E
:1035F000642091FBF0F200FB121050B94FF4C87038
:1036000091FBF0F200FB121008B901207047002076
:10361000FCE70120FAE70020F8E7000070B5B448A5
:1036200006780EB1012E24D10120B249087000F0B5
:103630000FFB4EB9304604F047F804460246AEA1EF
:10364000AE48FCF71FFE08E0304603F09FFF04463B
:103650000246A9A1A948FCF715FEA94951F8260080
:10366000A64900F09FFB00F00DFD70B2A049087064
:103670003DE1022E03D0032E01D0052E1FD10120E3
:103680009C49087000F0E4FA304603F07FFF0446DE
:10369000024699A19948FCF7F5FD994951F8260091
:1036A000964900F0FFFA01230B222821192000F08F
:1036B00035FE00F0E7FC70B28D49087017E1042E6A
:1036C00021D101208B49087000F0C2FA8D480068B2
:1036D00007F0AAFB044602460B468BA18748FCF77D
:1036E000D1FD874951F82600844900F0DBFA012317
:1036F0000B222821192000F011FE00F0C3FC70B24B
:103700007B490870F3E0072E44D100F0A1FA80480D
:103710000078012806D101231A460021084600F04E
:103720004BFD31E07B480078012812D101237A4813
:1037300002780021084600F03FFD77480078401CE1
:1037400075490870084600780E281DDB0A200870AD
:103750001AE07248007888B901230922002108463E
:1037600000F02AFD6348007801280DD100206C4943
:103770000870604908706B49087005E00123022257
:103780000021084600F018FD00F07CFC70B258499A
:103790000870ACE0062E76D101205649087000F082
:1037A00057FA61480068012818D16048008840F63F
:1037B000D861884212DA01235D4802780021084668
:1037C00000F0FAFC5A480078401C59490870084635
:1037D0000078082850DB032008704DE0534800882B
:1037E00040F61651884205DC0123032200210846D9
:1037F00000F0E2FC4D48008840F6DE5188420BDACA
:103800004A48008840F61651884205DD012304220B
:103810000021084600F0D0FC4448008840F674615E
:1038200088420BDA4148008840F6DE51884205DBC9
:10383000012305220021084600F0BEFC3B48008819
:1038400040F6746188420BDB3848008840F6D86146
:10385000884205DA012306220021084600F0ACFC6C
:103860003248008840F6D861884205DB01230722F0
:103870000021084600F0A0FC00F004FC70B21C49D6
:10388000087034E0FFE7082E1BD1012019490870A9
:1038900000F0DEF927480078012806D101230F2225
:1038A0000021084600F088FC05E001230E220021DB
:1038B000084600F081FC00F0E5FB70B20C4908708E
:1038C00015E000F0C5F9304603F060FE04460246FC
:1038D00019A10A48FCF7D6FC094951F82600074906
:1038E00000F0CCF900F0CEFB70B20149087070BD59
:1038F0004D0A002099070020256400003C0A0020A2
:10390000FC090020B8070020252E326600000000C8
:103910003507002086070020500A002036070020C7
:10392000980700204B0700200C0123421A060020B4
:10393000510A00204C0A00202533640010B50E48BF
:103940000E490A6802604A6842600989018100F0F4
:103950007FF9094802780AA10A48FCF793FC064857
:10396000427809A10A48FCF78DFC0949054800F096
:1039700003FA00F087FB10BD403700201837002005
:10398000253264003C0A002025303264000000002B
:10399000440A002010B58024402221460020FFF771
:1039A00075F810BD10B54024402221460020FFF7D5
:1039B0006DF810BD10B52024402221460020FFF7ED
:1039C00065F810BD08B50121042000F00FFF40F29A
:1039D0001310ADF8000010208DF8030003208DF8BF
:1039E000020069465648FEF75EFF4FF48071544866
:1039F000FEF7E4FF01215248FEF7E0FF2020ADF87A
:103A0000000048208DF8030001208DF8020069466F
:103A10004B48FEF748FF0121082000F0E7FE4FF475
:103A20004870ADF8000010208DF8030001208DF8DB
:103A3000020069464348FEF736FF4FF400714148E3
:103A4000FEF7BCFF4FF480713E48FEF7B7FF012040
:103A5000ADF8000048208DF8030001208DF8020029
:103A600069463848FEF71FFF0121102000F0BEFE16
:103A70008020ADF8000010208DF8030001208DF8A3
:103A8000020069463048FEF70EFF4FF46070ADF853
:103A9000000010208DF8030001208DF80200694617
:103AA0002948FEF700FF0121202000F09FFE822020
:103AB000ADF8000010208DF8030001208DF8020001
:103AC00069462248FEF7EFFE4FF4F850ADF80000CB
:103AD00048208DF8030001208DF8020069461B483C
:103AE000FEF7E1FE0121402000F080FE44F2044098
:103AF000ADF8000048208DF8030001208DF8020089
:103B000069461348FEF7CFFE0820ADF800002820D4
:103B10008DF8030001208DF8020069460C48FEF77D
:103B2000C2FE4FF43A40ADF8000010208DF80300BB
:103B300001208DF8020069460548FEF7B4FE08BD75
:103B400000080140000C0140001001400014014039
:103B50000018014010B50320104908700C2048706F
:103B6000042088700020C870087111204871B320AB
:103B700088710920C87100240DE000BF4021084869
:103B800003F0A0FA0028F9D00448015D044803F0CE
:103B900066FB601CC4B2082CEFDB10BDE00A0020FD
:103BA0000038014000BFFEE7704710B54FF4A06039
:103BB00000F044F810BD000070B5002100230F2272
:103BC000C4784CB31A4C246804F4E064C4F5E0648F
:103BD0004FEA1421C1F1040322FA01F2447804FAF5
:103BE00003F1847804EA020444EA01014FEA011176
:103BF000104C0678A155047804F01F054FF001041D
:103C000004FA05F405784FEA65154FF0E02606EB57
:103C10008505C5F8004109E0047804F01F0501247A
:103C2000AC40054D0678761145F8264070BD000081
:103C30000CED00E000E400E080E100E00249014317
:103C4000024A1160704700000000FA050CED00E028
:103C500000200DE0002107E00022074B03EB0113D9
:103C600023F810204A1CD1B28229F5DB421CD0B2C5
:103C70000828EFDB70470000704F002030B5044685
:103C80000D4622461821022000F012FC01230022DA
:103C90000E21282000F090FA2A460C212C2000F05A
:103CA0003CFC30BD2DE9F04107460E463148057811
:103CB000284603F06BFC0446042D05D1324604214E
:103CC000182000F02AFC30E0002C07DB0A2C05DA73
:103CD00032460421362000F020FC26E00A2C07DBC7
:103CE000642C05DA324604212C2000F016FC1CE07E
:103CF000642C08DBB4F57A7F05DA324604212420EF
:103D000000F00BFC11E0B4F57A7F09DB42F2107091
:103D1000844205DA32460421182000F0FEFB04E05C
:103D2000324604210E2000F0F8FB022D06D10123BB
:103D300000222C21282000F03BFB19E0032D06D1A6
:103D400001231A462C21282000F032FB10E0042D1C
:103D500006D1012302222C21282000F029FB07E0B4
:103D6000052D05D1012303222C21282000F020FB62
:103D7000BDE8F0814D0A002030B504460D462246CC
:103D80000E21084600F0C9FB05A20E21362000F0E6
:103D9000C4FB2A460E21422000F0BFFB30BD0000CC
:103DA0003A0000002DE9F04180460F46344804787F
:103DB00014B93448B0F90050012C03D1204603F067
:103DC000E5FB06462CBB15F10A0F10DC2EA20E21D6
:103DD000182000F0A2FB3A460E212C2000F09DFB9B
:103DE000012304220E21542000F0E2FA2BE0002DE2
:103DF00010DA25A20E21222000F08FFB3A460E2178
:103E0000362000F08AFB012304220E214A2000F014
:103E1000CFFA18E00A2D0BDA3A460E212C2000F0DA
:103E20007CFB012304220E21402000F0C1FA0AE0AD
:103E30003A460E21222000F070FB012304220E21BD
:103E40004A2000F0B5FA012C18D10A2E0BDA3A46B6
:103E50000E212C2000F061FB012305220E214020C1
:103E600000F0A6FA0AE03A460E21222000F055FBA7
:103E7000012305220E214A2000F09AFABDE8F081C4
:103E80004D0A0020BE0700202D00000010B50021C3
:103E90008D2000F06BFB0021102000F067FB00215B
:103EA000AE2000F063FB10BD10B500218D2000F0A6
:103EB0005DFB0021142000F059FB0021AF2000F031
:103EC00055FB10BDF0B514460026832801DC3F29C0
:103ED00000DDF0BD0B46CF1701EB5777FF10C7F1A0
:103EE0000707FAB2CF1701EB5777FF10A1EBC7070F
:103EF000FDB2C5F107070123BB40DEB25CB10C4B3C
:103F000003EB001333F812303343094F07EB00176C
:103F100027F812300AE0064B03EB001333F8123097
:103F2000B343034F07EB001727F8123000BFD0E769
:103F3000704F002008B50121202000F057FC4FF4FD
:103F4000A060ADF8000010208DF8030003208DF86C
:103F5000020069464A48FEF7A6FC4FF4A0614848B3
:103F6000FEF72CFD4FF4C050ADF800006946444800
:103F7000FEF799FC4FF4C0514148FEF71FFD4FF486
:103F80000070ADF8000069463D48FEF78CFC4FF428
:103F900000713B48FEF712FD4FF400713848FEF700
:103FA0000BFD642003F046FA4FF400713448FEF72D
:103FB00005FD0021AE2000F0D9FA0021D52000F047
:103FC000D5FA0021502000F0D1FA0021A82000F0FD
:103FD000CDFA00213F2000F0C9FA0021D32000F0E3
:103FE000C5FA0021084600F0C1FA0021402000F087
:103FF000BDFA00218D2000F0B9FA0021142000F054
:10400000B5FA0021202000F0B1FA0021022000F0D2
:10401000ADFA0021A12000F0A9FA0021C02000F093
:10402000A5FA0021DA2000F0A1FA0021122000F008
:104030009DFA0021812000F099FA0021EF2000F084
:1040400095FA0021D92000F091FA0021F12000F02A
:104050008DFA0021DB2000F089FA0021302000F0E9
:1040600085FA0021A42000F081FA0021A62000F0AA
:104070007DFA0021AF2000F079FAFFF7E9FD08BDD5
:104080000014014070B500241EE004F1B001C8B274
:10409000002100F06BFA0021084600F067FA0021C9
:1040A000102000F063FA00250AE0094901EB051130
:1040B00031F81410C8B2012100F058FA681CC5B2DA
:1040C000832DF2DB601CC4B2082CDEDB70BD000067
:1040D000704F00202DE9FF4F0F4616461C46BB4689
:1040E000A6F12000C6B20C2C01D1A04608E0102C8D
:1040F00002D14FF0180803E0282C01D14FF06408DA
:1041000000254EE00C2C07D106EB4600274901EBB9
:10411000800010F8059014E0102C07D106EB460043
:10412000234901EBC00010F805900AE0282C08D1C3
:1041300006EBC60000EB06101E4901EB800010F8EC
:1041400005904FF0000A26E019F0800F05D039469F
:104150000D9A0098FFF7B6FE09E00D9808B9012006
:1041600000E00020C2B239460098FFF7ABFE4FEAEC
:1041700049604FEA1069781CC7B2A7EB0B00A04258
:1041800005D15F460098401CC0B2009006E00AF1DD
:10419000010000F0FF0ABAF1080FD5DB00BF681C70
:1041A000C5B24545AEDBBDE8FF8F0000BCB50008D9
:1041B00020C00008B80601082DE9FF4F81B00E4667
:1041C00014461F46009624B94FF005084FF0280901
:1041D00007E0012C05DB0F2C03DC4FF480684FF067
:1041E0004009002578E014B93E4810F805A0012CDC
:1041F00002D13D4810F805A0022C02D13B4810F82E
:1042000005A0092C02D13A4810F805A0032C02D1D0
:10421000384810F805A0042C02D1374810F805A042
:10422000052C02D1354810F805A0062C02D13448DF
:1042300010F805A0072C02D1324810F805A00A2C6E
:1042400002D1314810F805A00B2C02D12F4810F8EC
:1042500005A00C2C02D12E4810F805A00D2C02D17F
:10426000214810F805A00E2C02D12A4810F805A00C
:104270000F2C02D1284810F805A04FF0000B25E0C4
:104280001AF0800F05D03A4631460198FFF71AFE22
:1042900008E00FB9012000E00020C2B231460198C9
:1042A000FFF710FE4FEA4A404FEA104A701CC6B2B0
:1042B0000098301A484505D1009E0198401CC0B2B4
:1042C000019006E00BF101001FFA80FBBBF1080F23
:1042D000D6DB00BF681C85B2454584DB05B0BDE870
:1042E000F08F0000B2B50008B8DE0008B8DA0008A8
:1042F000B8EE0008B8020108B8FE0008B8FA0008D5
:10430000B8F60008B8F20008B8EA0008B8E60008F5
:10431000B8E20008B8D20008B8D600082DE9FF4F6F
:1043200081B00C4616461F4600940B2E03D14FF069
:104330004C0A4FF0010B002533E00B2E02D11B4835
:1043400010F805804FF0000925E018F0800F05D027
:104350003A4621460198FFF7B5FD08E00FB9012064
:1043600000E00020C2B221460198FFF7ABFD4FEA02
:1043700048404FEA1048601CC4B20098201A5845C3
:1043800005D1009C0198401CC0B2019006E009F1E3
:1043900001001FFA80F9B9F1080FD6DB00BF681CD5
:1043A00085B25545C9DB05B0BDE8F08FD42B0108B7
:1043B0002DE9FF4F81B00E4614461F4600962CB1E2
:1043C000012C03D0022C01D0032C04D14FF0600843
:1043D0004FF0100907E0042C01D0052C03D14FF059
:1043E00064084FF02409002550E01CB92A4810F851
:1043F00005A01CE0012C03D1284810F805A016E008
:10440000022C03D1264810F805A010E0032C03D19C
:10441000244810F805A00AE0042C03D1224810F823
:1044200005A004E0052C02D1204810F805A04FF0AB
:10443000000B25E01AF0800F05D03A46314601986E
:10444000FFF740FD08E00FB9012000E00020C2B2F4
:1044500031460198FFF736FD4FEA4A404FEA104ACD
:10446000701CC6B20098301A484505D1009E0198CC
:10447000401CC0B2019006E00BF101001FFA80FB66
:10448000BBF1080FD6DB00BF681C85B24545ACDB2D
:1044900005B0BDE8F08F0000802C0108E02C010879
:1044A000402D0108202C0108F0D1000854D200084A
:1044B00078B505460E4614462BE07E2D03DD00251B
:1044C00006F11000C6B23A2E04DD0020054606466D
:1044D000FFF7BEFB2078322809D101230093227810
:1044E0000C23701DC1B22846FFF7F4FD07E001233D
:1044F00000932278102331462846FFF7EBFD207801
:104500002E2802D1A81DC5B202E005F10C00C5B2EB
:10451000641C20780028D0D178BD78B505460E46B9
:1045200014461FE07E2D03DD002506F11000C6B203
:104530003A2E04DD002005460646FFF789FB0123DD
:1045400000932278282331462846FFF7C3FD2078C0
:104550002E2803D105F10A00C5B202E005F11400CE
:10456000C5B2641C20780028DCD178BD70B5044643
:104570000E462EB14FF480611C48FEF71FFA04E08E
:104580004FF480611948FEF717FA4FF4807117480D
:10459000FEF712FA00251BE04FF400611348FEF706
:1045A0000BFA14F0800F05D04FF480510F48FEF73E
:1045B00005FA04E04FF480510C48FEF7FDF94FF482
:1045C00000610A48FEF7FAF96006040E681CC5B2DD
:1045D000082DE1DB4FF480710448FEF7EFF94FF44A
:1045E00080610248FEF7EAF970BD00000014014046
:1045F00010B52D48007818B908202B49087005E03F
:1046000029480078401E40B22749087026480078A3
:1046100010B9F32000F048FE23480078012802D1A9
:10462000F52000F041FE20480078042801D1FDF774
:1046300085FD1D480078022801D1FDF775FC1A4858
:104640000078052807D101201849087041F27070E0
:104650001749088003E040F22620154908801248D7
:104660000078032801D101F031FB1248007840B9ED
:104670000D480078082804D00F48007808B901F0E8
:1046800003FC0C48007858B90B48007840B906483C
:104690000078082804D101F033FF01200649087092
:1046A000FEF7BCFF10BD00004D0A00203A070020B5
:1046B0007C0700204C0A00204E0A002010B52C4830
:1046C0000078401C40B22A49087008460078092842
:1046D00001D1002008702648007810B9F32000F0BE
:1046E000E3FD23480078012802D1F52000F0DCFD2D
:1046F0001F480078042801D1FDF720FD1C480078F0
:10470000022801D1FDF710FC19480078052807D1CF
:1047100001201849087041F270701749088003E0C1
:1047200040F226201449088011480078032801D15E
:1047300001F0CCFA1148007840B90D4800780828FB
:1047400004D00F48007808B901F09EFB0B480078B0
:1047500058B90B48007840B905480078082804D1BA
:1047600001F0CEFE012006490870FEF757FF10BD8C
:104770004D0A00203A0700207C0700204C0A002048
:104780004E0A0020014908627047000000000E42F6
:104790007047000001460020034A506820F4404062
:1047A00008435060704700000010024029B1064ADB
:1047B00052690243044B5A6104E0034A526982433E
:1047C000014B5A61704700000010024029B1064AAF
:1047D000D2690243044BDA6104E0034AD26982439E
:1047E000014BDA61704700000010024029B1064A0F
:1047F00092690243044B9A6104E0034A926982433E
:10480000014B9A61704700000010024001490860A6
:1048100070470000400442420348406A40F0807004
:1048200001494862704700000010024030B5002185
:104830000022002400232D4D6D6805F00C0121B1EC
:10484000042905D0082923D105E0294D056022E07F
:10485000274D05601FE0254D6D6805F47012234D4E
:104860006D6805F48034022505EB92421CB9214D98
:10487000554305600BE01D4D6D6815F4003F03D0F6
:104880001C4D5543056002E0194D5543056002E09B
:10489000174D056000BF00BF144D6D6805F0F001B5
:1048A0000909154D6B5C0568DD4045600F4D6D686D
:1048B00005F4E061090A104D6B5C4568DD408560D8
:1048C0000A4D6D6805F46051C90A0B4D6B5C456873
:1048D000DD40C560054D6D6805F44041890B074D0D
:1048E0006B5CC568B5FBF3F5056130BD0010024097
:1048F00000127A0000093D00520A0020620A0020DE
:1049000010B501460022002300204A11012A02D1DD
:10491000094C236806E0022A02D1074C236A01E011
:10492000054C636A01F01F02012494401C4201D02F
:10493000012000E0002010BD0010024000210A4AC2
:1049400011700A4A82F82010012802D0042808D1E8
:1049500003E00121044A117004E00521024A1170AC
:1049600000E000BF00BF704720100240001002406E
:1049700001490860704700003C0442420249096A4C
:104980000143014A116270470010024010B509202E
:10499000FEF764F8FFF70EF810BD0000034800882A
:1049A00040F010000249A1F80408704704280040B4
:1049B00000200040044800884FF6EF7100EA010033
:1049C0000249A1F804087047042800400020004074
:1049D00070B50026002400253C4806884FEA0646AC
:1049E0003B48B0F81C0806443A48B6FBF0F43A4895
:1049F0000088A0423CD038490C8040F2B27510E0EB
:104A00002846FEF7EDFD40B1B4F5B77F02D3A4F51B
:104A1000B77404E0681C85B206E0A4F26D14681C4B
:104A200085B2B4F5B67FEBD800BF2C488580002551
:104A300016E02A498888FEF7D3FD30B1012D04D154
:104A40001D2C01D31D3C09E00CE02548405DA0422F
:104A500003D82348405D241A00E003E0681C85B2B7
:104A60001C2CE6D200BF681C1C498871601CC871F0
:104A70001848B6FBF0F100FB11644FF46160B4FB21
:104A8000F0F0164908704FF46160B4FBF0F100FBE0
:104A900011403C21B0FBF1F0104948704FF46160C7
:104AA000B4FBF0F100FB11403C21B0FBF1F201FB43
:104AB00012000A4988700B46DA799979988800F0D3
:104AC00011F806490872002070BD00001828004047
:104AD00000200040805101000C0700201837002002
:104AE000A6B50008F0B503460C461546642093FBB6
:104AF000F0F0C6B2642093FBF0F700FB1730C1B2B0
:104B0000132E02DD01F16400C1B20846CF1701EB9C
:104B1000977701EBA702072092FBF0F700FB172025
:104B200082B25719601EDFF830C01CF8000038440C
:104B300082B2CF1701EB9777BF10B1EB870703D194
:104B4000032C01DA501E82B2072092FBF0F700FB23
:104B50001720C0B2F0BD00009AB5000800B5134898
:104B6000008810F0010F04D0FFF732FF0120104938
:104B700008700E48008810F0020F06D00B4800881D
:104B800020F002000B49A1F804080848008840F60C
:104B9000FA7100EA01000749A1F8040800BF0348C0
:104BA000008810F0200FFAD000BD0000042800405B
:104BB000490200200020004039B1094A128842EA27
:104BC0000002084BA3F8002809E0054A12886FEAA2
:104BD00000039BB202EA0302024BA3F800287047CD
:104BE00000280040002000401CB5002400F065F8BB
:104BF0000420FDF72FF80420FDF72CF8A0F5A041C4
:104C0000503945D001214FF0C050FFF7DFFD0120A2
:104C1000FFF7B8FDFDF715F80120FFF78FFE04E060
:104C2000601CC4B20A2002F005FC4120FFF768FEB8
:104C30000028F5D0FA2C01DB01201CBD4FF4807058
:104C4000FFF79CFE0120FFF793FE00F0D3F800F081
:104C5000C7F801210846FFF7AFFF00F0C1F847F69B
:104C6000FF7000F0ABF800F0BBF800232322CDE981
:104C700000230A2303220B2140F2DF7000F02EF8FC
:104C800045F250010420FCF7EDFF00F0A9F807E021
:104C900000F0B0F801210846FFF78EFF00F0A0F801
:104CA000FFF796FE01210807FFF790FD0120FFF7AF
:104CB00069FDFFF7B1FD0020BFE708B503208DF8BF
:104CC000000001208DF8010000208DF80200012075
:104CD0008DF803006846FEF76FFF08BD2DE9F05F11
:104CE00006460F4690469946DDE90AAB002440F29D
:104CF000B270864203DB40F63300864202DD0120BB
:104D0000BDE8F09F40F2B2750AE02846FEF768FC65
:104D100010B11D48044401E01C480444681C85B2DD
:104D2000B542F2DB781EC7B2002510E01848405D9E
:104D300040F2A321484304EBC0143046FEF750FC78
:104D400018B1012D01D113480444681C85B2BD423D
:104D5000ECDBA8F1010040F2A321484304EBC014AE
:104D6000C9EB4910C0EB092004EB0014CAEB0A1090
:104D700004EB80045C4400F033F8204600F00CF8AB
:104D800000F02EF80020BBE70085E2018033E1014E
:104D9000A6B500088051010000B50246FFF7FEFDF0
:104DA000100C044908800449A1F81C28FFF702FEF2
:104DB00000BD0000182800400020004000B5024659
:104DC000FFF7ECFDC2F30340034908800349A1F853
:104DD0000C28FFF7EFFD00BD082800400020004030
:104DE00000BF0348008810F0200FFAD07047000081
:104DF00004280040074800884FF6F77100EA0100D8
:104E00000549A1F8040800BF0248008810F0080F07
:104E1000FAD07047042800400020004002460021DC
:104E200007E0481C81B24FF6FE70814201DB002092
:104E300070470D48008810F0020FF2D00B48028036
:104E40004FF0000107E0481C81B24FF6FE7081422E
:104E500001DB0020ECE70448008810F0010FF2D0DD
:104E600002480088C0B2E3E7083800400C38004030
:104E700021B1028842F04002028004E002884FF62D
:104E8000BF731A400280704700B587B00121282007
:104E9000FFF7ACFC01218803FFF798FC4FF460405A
:104EA000ADF8040003208DF8060018208DF80700E7
:104EB00001A91E48FDF7F7FC4FF48050ADF804003F
:104EC00003208DF8060010208DF8070001A917486F
:104ED000FDF7E9FC4FF480511448FDF76FFD002009
:104EE000ADF808004FF48270ADF80A000020ADF86C
:104EF0000C000220ADF80E000120ADF810004002B9
:104F0000ADF812000820ADF814000020ADF816002E
:104F10000720ADF8180002A9054800F03DF901216D
:104F20000348FFF7A5FF07B000BD0000000C0140DB
:104F30000038004010B54FF480510648FDF73CFDA5
:104F40000620FFF76BFF4FF480510248FDF736FD56
:104F500010BD0000000C014010B504462403FFF70B
:104F6000E9FF00F061F84FF480510C48FDF724FD93
:104F70002020FFF753FFC4F30740FFF74FFFC4F3B0
:104F80000720FFF74BFFE0B2FFF748FF4FF48051D7
:104F90000248FDF713FD00F047F810BD000C01407A
:104FA0002DE9F04106460C4617464FF48051114852
:104FB000FDF702FD0320FFF731FFC4F30740FFF7C1
:104FC0002DFFC4F30720FFF729FFE0B2FFF726FF0C
:104FD000002505E0FF20FFF721FF7055681C85B212
:104FE000BD42F7DB4FF480510248FDF7E7FCBDE816
:104FF000F0810000000C014010B500244FF48051F6
:105000000848FDF7D9FC0520FFF708FFFF20FFF750
:1050100005FF04464FF480510248FDF7CFFC2046BF
:1050200010BD0000000C014010B500BFFFF7E4FF09
:1050300000F001000128F9D010BD00002DE9F05F5B
:1050400081460F461646DFF8A8B04FEA1738C7F377
:105050000B0ACAF58054A64200DC344644E04FEA0D
:1050600008314FF480525846FFF79AFF002508E0B8
:105070000AEB05001BF80000FF2800D003E0681CC5
:1050800085B2A542F4DB00BFA54216DA4046FFF721
:1050900063FF002507E019F8050005EB0A010BF88E
:1050A0000100681C85B2A542F5DB4FEA08314FF4D8
:1050B0008052584600F01EF804E022463946484621
:1050C00000F018F8A64200D10FE008F101084FF0F7
:1050D000000AA1442744301B86B2B6F5805F02DD8A
:1050E0004FF4805400E03446B9E700BFBDE8F09FBC
:1050F0006F3F00202DE9F04107460E461446F0B2FE
:10510000C0F58075AC4200DC254612E02A463146E7
:10511000384600F013F8AC4200D10BE02F442E4487
:10512000601B84B2B4F5807F02DD4FF4807500E02F
:105130002546EBE700BFBDE8F08100002DE9F04116
:1051400006460C461746FFF7F5FE4FF4805111480E
:10515000FDF732FC0220FFF761FEC4F30740FFF7C2
:105160005DFEC4F30720FFF759FEE0B2FFF756FEDD
:10517000002504E0705DFFF751FE681C85B2BD425A
:10518000F8DB4FF480510348FDF718FCFFF74CFFA4
:10519000BDE8F081000C014010B50022028802F445
:1051A00041520B884C8823438C882343CC8823436B
:1051B0000C8923434C8923438C892343CC89234383
:1051C0001A430280838B4FF2FF74234083830B8A40
:1051D000038210BD704710B500F002F810BD00004A
:1051E000002100202E4A126842F480322C4B1A60B3
:1051F00000BF2B4A126802F40030491C10B9B1F507
:10520000A06FF6D1264A126812F4003F01D00120A7
:1052100000E00020012842D1224A126842F0100228
:10522000204B1A601A46126822F003021A601A46CE
:10523000126842F002021A60194A5268184B5A600A
:105240001A4652685A601A46526842F480625A609E
:105250001A46526822F47C125A601A46526842F486
:10526000E8125A601A46126842F080721A6000BF53
:105270000B4A126812F0007FFAD0094A526822F0F5
:105280000302074B5A601A46526842F002025A6003
:1052900000BF034A526802F00C02082AF9D1704795
:1052A00000100240002002402DE9F04F87B0074671
:1052B000002005900490FDF7A7FE8020FDF7E4FD97
:1052C000052002F0D5F8FEF759F8F0B33846FDF79F
:1052D000DBFD052002F0CCF8FEF750F8B0B300BFBC
:1052E000052002F0C5F8FDF78FFE8120FDF7CCFD0B
:1052F000052002F0BDF8FEF741F80028F0D0FDF7D8
:105300001BFD0646052002F0B3F80120FDF71EFC48
:10531000FDF712FD8046052002F0AAF80020FDF7F7
:1053200015FCFDF737FF08F0FC0808EB062005F038
:1053300047FF05900021059805F0D2FE0BD107200C
:10534000964908700020964901E025E121E1088096
:105350009449088020E1F32F7DD1059805F064FD84
:105360000446914A914B05F077FB0022904BCDE922
:10537000000105F0BBF98F4A8F4BCDE9020105F022
:1053800069FC814605F0DAF804908C4801680498BD
:1053900006F07AF80490049805F046FD8146002254
:1053A000874B05F0FDF8044605F0F8FA81460498AD
:1053B00005F0CAFE814504DD049805F0C5FE401CD9
:1053C00002E0049805F0C0FE834605F0F9FE049063
:1053D000049805F0B9FE00B27A4908807048B0F927
:1053E0000000B1F90010401A002807DD6C48B0F940
:1053F00000007449B1F90010401A06E07148B0F994
:1054000000006749B1F90010401A142802DD644811
:10541000008858BB6248008820B96A48B0F900008B
:105420005F4908806749B1F900105D4AB2F9002070
:10543000881800EBD071782202EB6101624AB2F960
:105440000020914213DD5F49B1F90010544AB2F9CE
:105450000020881800E041E000EBD0714910643171
:10546000594A1288891A09B24D4A118016E05548E6
:10547000B0F9000078305449B1F90010884209DDD4
:1054800050480088643050490988401A00B24449A5
:10549000088003E06FF01300414908804048B0F9EC
:1054A0000000642802DB64203D4908803C48B0F9D4
:1054B000000010F1140F03DC6FF01300384908806E
:1054C0000120424908700020344908703D48B0F975
:1054D000000005F075FE07B0BDE8F08F3C49059867
:1054E00005F0CEFE05464FF08F4105F037FD04462E
:1054F000384905F0C9FF0490049805F095FC21F0A7
:105500000041044605F07AFA334908800988254AA3
:105510001288881800EBD071642202EB61012F4AD7
:10552000B2F9002091420EDD2B4909881D4A1288EC
:10553000881800EBD07149106431284A1288891A02
:10554000184A118013E02448008864302349B1F9D7
:105550000010884208DD2048008864301F4909880F
:10556000401A1049088002E000200E4908800D48CA
:105570000088642802DB64200A4908800120184959
:1055800008700020054908701348008805F030FEB7
:10559000A1E707200149087000209CE7E4090020EA
:1055A000BE070020BC070020D7A3703D0AF7654066
:1055B0000000F040CDCCCCCCCC6C4740E0090020C2
:1055C0000000E03FE80900206E0700207607002079
:1055D0000000FA420000C040E609002070070020E9
:1055E00077070020042808D14FF0E021096941F035
:1055F00004014FF0E022116107E04FF0E02109695A
:1056000021F004014FF0E022116170477047000063
:1056100010B51348006840F00100114908600846C1
:105620004068104908400E494860084600680E4925
:1056300008400B4908600846006820F48020086094
:105640000846406820F4FE0048604FF41F00886060
:10565000FFF7C1FD4FF000600449086010BD000075
:10566000001002400000FFF8FFFFF6FE08ED00E02A
:1056700010B502210E4800F0A3F8C0B100210D487A
:1056800000F08FF802210A4800F088F8084800F07E
:1056900094F8094908600020084908804FF08041CB
:1056A000A1F824084FF00101024800F07AF810BD7B
:1056B000002C014000080040D0070020242C0140AD
:1056C00010B50121880700F07BF880B1012188071F
:1056D00000F064F800214FF0804000F062F80121F2
:1056E0000348FCF703F801210148FCF79AFA10BDC2
:1056F0000024014010B50121044800F061F818B100
:105700000121024800F04AF810BD000000040040EA
:1057100010B501210A4800F053F880B10121084872
:1057200000F03CF807480068401C0649086006483D
:105730000068401C0449086001200449087010BD3D
:105740000008004054020020580200202E070020CC
:1057500021B1028C42F00102028403E0028C22F0AB
:105760000102028470470A460021018B4FF6FC7348
:1057700019401143018370470A460021018B4FF6FF
:105780000F7319401143018370470A460021018BB2
:105790004FF6F3731940114301837047CA430282E5
:1057A000704721B1028842F00102028004E00288C1
:1057B0004FF6FE731A40028070470146888E70478C
:1057C00030B50246002000230024158A05EA0103B3
:1057D000958905EA010413B10CB1012000E0002015
:1057E00030BD10B51AB183890B43838104E08389EE
:1057F000CC43A4B22340838110BD01894FF6F872D7
:1058000011400181704721B1028942F48042028136
:1058100003E0028922F48042028170470A46002197
:1058200001894FF2FF03194011430181704721B1F3
:10583000028942F40042028103E0028922F400421C
:10584000028170470A46002101894CF6FF73194016
:105850001143018170470A46002101894FF6F87310
:1058600019401143018170470A46002101894FF612
:105870008F73194011430181704782884FF68F73EF
:105880001A40828082880A43828070470022028800
:105890001D4B98420ED01D4B98420BD0B0F1804F5B
:1058A00008D01B4B984205D01A4B984202D01A4B95
:1058B000984204D14FF68F731A404B881A43174B06
:1058C000984207D0164B984204D04FF6FF431A4037
:1058D000CB881A4302808B8883850B8803850A4B0B
:1058E00098420BD0094B984208D00E4B984205D0F5
:1058F0000D4B984202D00D4B984201D10B7A038692
:105900000123838270470000002C014000340140D5
:105910000004004000080040000C0040001000405F
:105920000014004000400140004401400048014094
:105930001FB50121C802FEF759FF4FF6FF70ADF801
:1059400008000020ADF80400ADF80A00ADF806002C
:1059500001A92248FFF79AFF01212048FFF753FFD2
:1059600000211E48FFF763FF4FF400511B48FFF76B
:1059700069FF00211948FFF751FF03211748FFF77E
:10598000F2FE00211548FFF700FF00211348FFF742
:10599000F3FE10211148FFF767FF04210F48FFF7BE
:1059A0005AFF01210D48FFF7D3FE012243210B4886
:1059B000FFF717FF1B208DF8000000208DF8010075
:1059C0008DF8020001208DF803006846FEF7F4F818
:1059D00001210248FFF7E5FE1FBD0000002C014039
:1059E0007FB505460C4601210846FEF7EFFEADF8EF
:1059F0000850ADF804400020ADF80A00ADF80600EC
:105A000001A94FF08040FFF741FF012241218807A3
:105A1000FFF7E7FE1C208DF8000000208DF8010044
:105A200002208DF8020001208DF803006846FEF781
:105A3000C3F801218807FFF7B4FE7FBD1FB5012120
:105A40000220FEF7C3FE42F20F70ADF8080041F6E7
:105A50001F40ADF804000020ADF80A00ADF80600C4
:105A600001A91348FFF712FF1148FFF7C6FE0021F6
:105A70000F48FFF7C8FE20210D48FFF7FEFE012268
:105A800041210B48FFF7ADFE1D208DF800000020DE
:105A90008DF8010001208DF802008DF803006846A2
:105AA000FEF78AF801210248FFF77BFE1FBD0000C8
:105AB000000400401FB501210420FEF787FE0920E5
:105AC000ADF8080041F61F40ADF804000020ADF825
:105AD0000A00ADF8060001A90D48FFF7D7FE012224
